:03000000020CD41B
:0C0CD400787FE4F6D8FD758129020BF151
:0B080000900058EBF0A3EAF0A3E9F031
:10080B00120A6314607824FE603B14604E1460354A
:10081B0024036003020969900058E0FBA3E0FAA3EC
:10082B00E0F9900001120A7C909800F01200009001
:10083B000058E0FBA3E0FAA3E0F9900002120A7C57
:10084B009098028023900058E0FBA3E0FAA3E0F914
:10085B00900001120A7C909800800D909800740112
:10086B00F07F021200008004F012000090005BE0A9
:10087B00FBA3E0FAA3E0F9E4120AA9020969908A42
:10088B0000E0F4541FFE5401900061F0EEC31354CA
:10089B0001900060F0EE1313540190005FF0EE1323
:1008AB001313540190005EF0EEC45401900062F0FB
:1008BB00EE7003020946E4FFFDA805EE088002C3B3
:1008CB0013D8FC30E0010F0DEDB405EDEFD394011F
:1008DB004002806790005BE0FBA3E0FAA3E0F974B1
:1008EB0002120AA990005BE0FBA3E0FAA3E0F990E7
:1008FB000001E4120ABB90005EE0600890000274F5
:10090B0001120ABB90005FE06008900002740212B3
:10091B000ABB900060E060089000027403120ABBEF
:10092B00900061E060089000027404120ABB900012
:10093B0062E0602A9000027405802090005BE0FB6F
:10094B00A3E0FAA3E0F97401120AA990005BE0FBA3
:10095B00A3E0FAA3E0F99000017406120ABBE4FFCE
:01096B002269
:100CAA00758AFF758CA5E4F58B758DE8D29CC29D7B
:100CBA00D29EC29FC298C299758921D28ED28CD2F5
:0A0CCA0088C28A75B80275A882225C
:100B2B009096007413F07407F09096047480F09014
:100B3B0096027490F074B0F090960174BBF0A374AD
:100B4B0010F07420F07430F07440F07450F07405B1
:100B5B00F09096087413F07407F090960A7490F066
:100B6B0074B0F09096097499F0A37410F07420F09F
:100B7B007430F07440F07450F0E4900050F09096A4
:030B8B0005F02250
:100C4E007F641200009098007430F07F3212000022
:100C5E009098007430F07F3212000090980074303B
:100C6E00F01200009098007438F012000090980076
:100C7E00740FF01200009098007406F012000090AD
:100C8E0098007401F07FE812000090003CE07002C2
:0C0C9E00A3E0700790003CF0A304F022DB
:10096C00E4F524F529F526F5227527FFF525F5285C
:10097C00F529900052F0900057F0900000F0900094
:10098C0008F0900002F090000EF090000DF0900036
:10099C0048F0900045F0900012F0F52190002BF0FB
:1009AC00A3F0900037F0900000F090004EF0900013
:1009BC0051F090000FF0900007F0900032F0900092
:1009CC0009F0900033F090000AF0900001F09000D4
:1009DC0030F0900028F090004FF0900021F0A3F040
:1009EC0090002FF0900031F0900035F0A3F09000C3
:1009FC003CF0A3F0900015F0900038F0A3F09000BC
:100A0C0017F0900050F0908A00E0FFC413135401CB
:100A1C00900045F0D21BD21CD21DE4900011F09036
:100A2C00000CF0900053F090001304F0900024128E
:100A3C000AFA00000000E490004DF0900049120A00
:100A4C00FA00000000E490001DF0A3F0A3F0A3F066
:070A5C00900043F0A3F0221B
:100B8E00909A03E0FF900068E4F0A3EFF07F141258
:100B9E000000E4909A02F07F14120000E4909A0292
:100BAE00F07F14120000909A027408F07F14120065
:100BBE0000E4909A02F07F14120000909A03E0FF76
:100BCE00900068E4F0A3EFF07F14120000909A02F8
:100BDE00740CF07F14120000909A027401F07F14CE
:030BEE0002000002
:100BF100B295120CAA12096C120B2B90006A749612
:070C0100F09096037455F01A
:100C0800900064120AFA00000000E47F507EC3FDE1
:100C1800FC900064E0F8A3E0F9A3E0FAA3E0FBC3CA
:100C2800120ADD50D5900064E0FCA3E0FDA3E0FECD
:100C3800A3E02401FFE43EFEE43DFDE43CFC90001B
:060C480064120AEE80C4F4
:100A6300BB010689828A83E0225002E722BBFE0291
:090A7300E32289828A83E49322C4
:100A7C00BB010CE58229F582E5833AF583E022502F
:100A8C0006E92582F8E622BBFE06E92582F8E22279
:0D0A9C00E58229F582E5833AF583E4932293
:100AA900BB010689828A83F0225002F722BBFE012C
:020AB900F32226
:100ABB00F8BB010DE58229F582E5833AF583E8F071
:100ACB00225006E92582C8F622BBFE05E92582C81D
:020ADB00F22205
:100ADD00EB9FF5F0EA9E42F0E99D42F0E89C45F06F
:010AED0022E6
:0C0AEE00ECF0A3EDF0A3EEF0A3EFF0227B
:100AFA00A8828583F0D083D082120B11120B1112B7
:100B0A000B11120B11E473E493A3C583C5F0C583DB
:100B1A00C8C582C8F0A3C583C5F0C583C8C582C845
:010B2A0022A8
:00000001FF
