:0300000002000EED
:10000E00787FE4F6D8FD9000007FFF7E90E4F0A3A9
:0A001E00DFFCDEFA75812B0200639F
:1000A800B29512D5C112D64712D5EB7F6412043F20
:1000B80012D7149000007496F012532412045112AF
:1000C800098D1213881202CC12287B121EF11242DB
:0700D800D412530E80E32255
:0B00DF00900E08EBF0A3EAF0A3E9F09C
:1000EA0012DCC91470030201BA24FE60521460794A
:1000FA00147003020190240360030202C9900E08DF
:10010A00E0FBA3E0FAA3E0F990000112DCE2909888
:10011A0000F0120003900E08E0FBA3E0FAA3E0F956
:10012A0090000212DCE2909802F0120003900E0B8B
:10013A00E0FBA3E0FAA3E0F9E412DD0F0202C990A2
:10014A000E08E0FBA3E0FAA3E0F990000112DCE25A
:10015A00909800F0120003900E0BE0FBA3E0FAA3C4
:10016A00E0F9E412DD0F0202C99098007401F07FF1
:10017A000212043F900E0BE0FBA3E0FAA3E0F9E4BD
:10018A0012DD0F0202C9900E08E0FBA3E0FAA3E019
:10019A00F990000112DCE2909800F0120003900E30
:1001AA000BE0FBA3E0FAA3E0F9E412DD0F0202C9B7
:1001BA00908A00E0FFF4541FFF5401900E11F0EFF3
:1001CA00C3135401900E10F0EF1313543F540190CF
:1001DA000E0FF0EF131313541F5401900E0EF0EF8D
:1001EA00C4540F5401900E12F0EF70030202A6E4F9
:1001FA00FEFDEFC8EDC8088002C313D8FC30E00149
:10020A000E0DEDB405ECEED394014026900E0BE0F2
:10021A00FBA3E0FAA3E0F9740112DD0F900E0BE0E4
:10022A00FBA3E0FAA3E0F9900001740612DD2102B3
:10023A0002C9900E0BE0FBA3E0FAA3E0F9740212E4
:10024A00DD0F900E0BE0FBA3E0FAA3E0F9900001AA
:10025A00E412DD21900E0EE0600890000274011293
:10026A00DD21900E0FE06008900002740212DD2179
:10027A00900E10E06008900002740312DD21900EC7
:10028A0011E06008900002740412DD21900E12E061
:10029A00602D900002740512DD218023900E0BE080
:1002AA00FBA3E0FAA3E0F9740112DD0F900E0BE054
:1002BA00FBA3E0FAA3E0F9900001740612DD21E441
:0102CA00FF34
:0102CB002210
:104F820025322E326600503336563A202B202532F7
:104F92002E3266202020004E3336563A202D202510
:104FA200322E3266202020002573004368322041D1
:104FB2004743204C6576656C20200025312E3266F1
:104FC20000204F7574206F662052616E6765202045
:104FD200004368616E6E656C322020204E2E412E99
:104FE200200053696E676C6520436820436F6E66CC
:104FF20069670043683120414743204C6576656C00
:1050020020200025312E31660050414D502056455A
:105012005259204C4F572020760050414D50205677
:105022004552592048494748205E0050414D502082
:105032005645525920484947482076004E6F726DB6
:10504200616C202020202020202020004C6F6361F2
:105052006C2074657374206D6F646500496E205214
:0B506200656D6F7465204C6F6F70006F
:1002CC00908000E0F4F521908200E0F4F522908417
:1002DC0000E0F4F523908600E06487F524C20290D8
:0B02EC008800E0F4F525D202F5262280
:1002F700900DF37401F0900E0BF0A3740DF0A3743E
:10030700F8F07B017A0D79F31200DF900DF9E070B8
:100317005C900001E004F0D39404405AE4F0A3E0B9
:10032700FE900DFAE0FF6E6041900002EFF0900D35
:100337005EE07004A3E06401700C900D5EF0A3F022
:10034700900D64F0A3F0900D60E07004A3E06401E9
:10035700700C900D60F0A3F0900D66F0A3F0900084
:10036700007496F0E490000CF0227F0622E49000DF
:0803770001F0A37406F07F06FB
:01037F00225B
:0E038000900DF6EBF0A3EAF0A3E9F0A3EDF088
:10038E00E0B401057404F08005E4900DF9F0E490FA
:10039E000DFCF0A3F0900DFAE0FEA3E0FFA3E0FC4D
:1003AE00A3E0FDC39FEC9E5054A37402F0900DFD8C
:1003BE00E0FF900DF9E0C454F02F4480900DFFF053
:1003CE00900DF6E0FBA3E0FAA3E0F98D828C831288
:1003DE00DCE2900E00F0900E0B7401F0A3740EF0A0
:1003EE00A37403F07B017A0D79FE1200DF900DFDF0
:0D03FE00E004F07006900DFCE004F0809823
:01040B0022CE
:10040C00EFB401047F048002E4FF900DF67403F056
:10041C00EFC454F02D4480A3F0900E0B7401F0A3A4
:10042C00740DF0A374FBF07B017A0D79F61200DFEA
:02043C007F003F
:01043E00229B
:10043F00E4FEEEC39F500AE4FD0DEDB4C8FB0E8041
:01044F00F1BB
:010450002289
:07000300E4FF0FEFB414FB52
:01000A0022D3
:10045100E4900DBDF0A3F0A312DD71000000009047
:100461009400740BF0120003120003120003E0FF6A
:10047100900D24F07E007C007D0C12DD43CCEECC8F
:10048100CDEFCDEC12D98C7B337A3379537843128B
:10049100D881900DBF12DD65900D7874FFF0A374C3
:1004A1004FF0A37482F0900DBFE0FCA3E0FDA3E048
:1004B100FEA3E0FF900D7B12DD657B017A0D79A52E
:1004C10012DF42E4900DB9F0A3F0A3F0A37406F09B
:1004D100C3900DBAE09405900DB9E09400503DA38E
:1004E100E024A5F582E4340DF583E0FF900DBBE037
:1004F100FCA3E02411F582EC3403F583EFF0900DB9
:10050100BAE004F07006900DB9E004F0900DBCE083
:1005110004F07006900DBBE004F080B49094007478
:100521000CF0120003120003120003E0FF900D23F0
:10053100F07E007C007D0C12DD43CCEECCCDEFCD06
:10054100EC12D98C7B007A00795C784312D88190C7
:100551000DBF12DD65900D7874FFF0A3744FF0A309
:100561007482F0900DBFE0FCA3E0FDA3E0FEA3E0E8
:10057100FF900D7B12DD657B017A0D79A512DF42BB
:10058100E4900DB9F0A3F0A3F0A37406F0C3900DAD
:10059100BAE09405900DB9E09400503DA3E024A584
:1005A100F582E4340DF583E0FF900DBBE0FCA3E0A0
:1005B10024FDF582EC3402F583EFF0900DBAE004EE
:1005C100F07006900DB9E004F0900DBCE004F070FD
:1005D10006900DBBE004F080B4302003020759906F
:1005E1009400740FF0120003120003120003E0FFE5
:1005F100900D25F07E007C007D2412DD43CCEECCF5
:10060100CDEFCDEC12D98C7B007A0079777843124B
:10061100D881900DBF12DD65900D7874FFF0A37441
:100621004FF0A37488F0900DBFE0FCA3E0FDA3E0C0
:10063100FEA3E0FF900D7B12DD657B017A0D79A5AC
:1006410012DF42E4900DB9F0A3F0A3F0A3F0C39040
:100651000DBAE0940F900DB9E09400503DA3E02451
:10066100A5F582E4340DF583E0FF900DBBE0FCA31A
:10067100E02429F582EC3403F583EFF0900DBAE024
:1006810004F07006900DB9E004F0900DBCE004F0A8
:100691007006900DBBE004F080B4909400740EF0ED
:1006A100120003120003120003E0FF900D26F07EFA
:1006B100007C007D2412DD43CCEECCCDEFCDEC12DD
:1006C100D98C7B007A00797F784312D881900DBF55
:1006D10012DD65900D7874FFF0A3744FF0A3749947
:1006E100F0900DBFE0FCA3E0FDA3E0FEA3E0FF90CE
:1006F1000D7B12DD657B017A0D79A512DF42E49055
:100701000DB9F0A3F0A3F0A3F0C3900DBAE0940FDC
:10071100900DB9E0940040030208CFA3E024A5F5B1
:1007210082E4340DF583E0FF900DBBE0FCA3E024EF
:100731003DF582EC3403F583EFF0900DBAE004F05F
:100741007006900DB9E004F0900DBCE004F0700665
:10075100900DBBE004F080B1909400740FF0120092
:1007610003120003120003E0FF900D25F07E007CD0
:10077100007D2412DD43CCEECCCDEFCDEC12D98C33
:100781007B007A007977784312D881900DBF12DD12
:1007910065900D7874FFF0A3744FF0A37488F09006
:1007A1000DBFE0FCA3E0FDA3E0FEA3E0FF900D7B05
:1007B10012DD657B017A0D79A512DF42E4900DB956
:1007C100F0A3F0A3F0A3F0C3900DBAE0940F900D45
:1007D100B9E09400503DA3E024A5F582E4340DF581
:1007E10083E0FF900DBBE0FCA3E02429F582EC340B
:1007F10003F583EFF0900DBAE004F07006900DB9A7
:10080100E004F0900DBCE004F07006900DBBE00434
:10081100F080B4909400740EF012000312000312E1
:100821000003E0FF900D26F07E007C007D2412DDA8
:1008310043CCEECCCDEFCDEC12D98C7B007A007994
:100841007F784312D881900DBF12DD65900D7874C9
:10085100FFF0A3744FF0A37499F0900DBFE0FCA3D7
:10086100E0FDA3E0FEA3E0FF900D7B12DD657B01BF
:100871007A0D79A512DF42E4900DB9F0A3F0A3F04F
:10088100A3F0C3900DBAE0940F900DB9E09400501D
:100891003DA3E024A5F582E4340DF583E0FF900D3E
:1008A100BBE0FCA3E0243DF582EC3403F583EFF0DB
:1008B100900DBAE004F07006900DB9E004F0900DCF
:1008C100BCE004F07006900DBBE004F080B490949D
:1008D10000740DF0120003120003120003E0FF90F8
:1008E1000D27F07E007C007D0512DD43CCEECCCDE2
:1008F100EFCDEC12D98C7B007A007923784312D8A2
:1009010081900DBF12DD65900D7874FFF0A3744FD7
:10091100F0A37482F0900DBFE0FCA3E0FDA3E0FE24
:10092100A3E0FF900D7B12DD657B017A0D79A512A5
:10093100DF42E4900DB9F0A3F0A3F0A37405F0C376
:10094100900DBAE09404900DB9E09400503DA3E0FD
:1009510024A5F582E4340DF583E0FF900DBBE0FCA6
:10096100A3E02455F582EC3403F583EFF0900DBA42
:10097100E004F07006900DB9E004F0900DBCE004C5
:0B098100F07006900DBBE004F080B4A5
:01098C002248
:10098D00900D64E07004A3E064017003120CD69026
:0F099D000D66E07004A3E0640170031209AC2240
:1009AC00900DC212DD7100000000900DC612DD71B9
:1009BC0000000000900DCA12DD7100000000900DC7
:1009CC0028E07003020BF6900D7874FFF0A3744FBF
:1009DC00F0A374AAF0A374FFF0A3744FF0A374AD4A
:1009EC00F07B017A0D79A912DF42E4900DA5F0A3FA
:1009FC00F0A3F0A3F0C3900DA6E0940F900DA5E02A
:100A0C009400503DA3E024A9F582E4340DF583E075
:100A1C00FF900DA7E0FCA3E024A5F582EC3402F5D1
:100A2C0083EFF0900DA6E004F07006900DA5E004A5
:100A3C00F0900DA8E004F07006900DA7E004F08093
:100A4C00B49094007409F012000312000312000316
:100A5C00E0FF900D21F0FCE412D9917B667A667967
:100A6C0016783F12D7787BCD7ACC791C784112D886
:100A7C0081900DC212DD657F087ED67DD17C3E90C3
:100A8C000DC2E0F8A3E0F9A3E0FAA3E0FB12D778DB
:100A9C00900D6C12DD65900D6CE0FCA3E0FDA3E005
:100AAC00FEA3E0FF900DC612DD65900D7874FFF08B
:100ABC00A3744FF0A374BDF0900DC6E0FCA3E0FD51
:100ACC00A3E0FEA3E0FF900D7B12DD657B017A0DA8
:100ADC0079BD12DF427B017A0D79BD12E353900D83
:100AEC00CA12DD657F487EE17DB27C40900DCAE084
:100AFC00F8A3E0F9A3E0FAA3E0FB12D91A600250C4
:100B0C001B7F3D7E0A7D877C40900DCAE0F8A3E0F8
:100B1C00F9A3E0FAA3E0FB12D91A507A900D78747D
:100B2C00FFF0A3744FF0A374AAF0A374FFF0A374A6
:100B3C004FF0A374C3F07B017A0D79A912DF42E464
:100B4C00900DA5F0A3F0A3F0A3F0C3900DA6E09434
:100B5C000F900DA5E094005044A3E024A9F582E485
:100B6C00340DF583E0FF900DA7E0FCA3E024B9F56C
:100B7C0082EC3402F583EFF0900DA6E004F07006E1
:100B8C00900DA5E004F0900DA8E004F07006900D17
:100B9C00A7E004F080B47F0F7E00121338900D6C28
:100BAC00E0FCA3E0FDA3E0FEA3E0FF120F17E4902E
:100BBC000DA5F0A3F0900DA5E0FCA3E0FDC39FEC08
:100BCC009E501D74B92DF582EC3402F58374FFF040
:100BDC00900DA6E004F07006900DA5E004F080D511
:100BEC007B017A0279A512C48C2278A97C0D7D0137
:100BFC007BFF7A4F79D312DEC0E4900DA5F0A3F001
:100C0C00A3F0A3F0C3900DA6E09410900DA5E09472
:100C1C0000503DA3E024A9F582E4340DF583E0FFF8
:100C2C00900DA7E0FCA3E024A5F582EC3402F5833B
:100C3C00EFF0900DA6E004F07006900DA5E004F026
:100C4C00900DA8E004F07006900DA7E004F080B4BD
:100C5C0078A97C0D7D017BFF7A4F79E412DEC0E42C
:100C6C00900DA5F0A3F0A3F0A3F0C3900DA6E09413
:100C7C0010900DA5E09400503DA3E024A9F582E46A
:100C8C00340DF583E0FF900DA7E0FCA3E024B9F54B
:100C9C0082EC3402F583EFF0900DA6E004F07006C0
:100CAC00900DA5E004F0900DA8E004F07006900DF6
:100CBC00A7E004F080B4900D60E07002A3E060093E
:090CCC007B017A0279A512C48CA7
:010CD50022FC
:100CD600900DC212DD7100000000900DC612DD718C
:100CE60000000000900DCA12DD7100000000900D9A
:100CF6007874FFF0A3744FF0A374AAF0A374FFF006
:100D0600A3744FF0A374F5F07B017A0D79A912DF75
:100D160042E4900DA5F0A3F0A3F0A3F0C3900DA6B6
:100D2600E0940F900DA5E09400503DA3E024A9F5B2
:100D360082E4340DF583E0FF900DA7E0FCA3E024E8
:100D460079F582EC3402F583EFF0900DA6E004F01D
:100D56007006900DA5E004F0900DA8E004F0700672
:100D6600900DA7E004F080B49094007408F012008F
:100D760003120003120003E0FF900D22F0FCE412C0
:100D8600D9917B667A667916783F12D7787BCD7AC9
:100D9600CC791C784112D881900DC212DD657F088E
:100DA6007ED67DD17C3E900DC2E0F8A3E0F9A3E0AB
:100DB600FAA3E0FB12D778900D6C12DD65900D6CEE
:100DC600E0FCA3E0FDA3E0FEA3E0FF900DC612DD6C
:100DD60065900D7874FFF0A3744FF0A374BDF09086
:100DE6000DC6E0FCA3E0FDA3E0FEA3E0FF900D7BB3
:100DF60012DD657B017A0D79BD12DF427B017A0D2A
:100E060079BD12E353900DCA12DD657F487EE17D00
:100E1600B27C40900DCAE0F8A3E0F9A3E0FAA3E0A3
:100E2600FB12D91A6002501B7F3D7E0A7D877C40EB
:100E3600900DCAE0F8A3E0F9A3E0FAA3E0FB12D90B
:100E46001A507A900D7874FFF0A3744FF0A374AA29
:100E5600F0A374FFF0A3744FF0A374C3F07B017A80
:100E66000D79A912DF42E4900DA5F0A3F0A3F0A33B
:100E7600F0C3900DA6E0940F900DA5E094005044A9
:100E8600A3E024A9F582E4340DF583E0FF900DA7D5
:100E9600E0FCA3E0248DF582EC3402F583EFF090BC
:100EA6000DA6E004F07006900DA5E004F0900DA8E4
:100EB600E004F07006900DA7E004F080B47F0E7E8B
:100EC60000121338900D6CE0FCA3E0FDA3E0FEA336
:100ED600E0FF120F17E4900DA5F0A3F0900DA5E02A
:100EE600FCA3E0FDC39FEC9E501D748D2DF582EC96
:100EF6003402F58374FFF0900DA6E004F0700690BE
:100F06000DA5E004F080D57B017A02797912C48CB4
:010F160022B8
:060F1700900DCE12DD6515
:100F1D00E4900DD2F0A3F07F3D7E0A7D877C40905A
:100F2D000DCEE0F8A3E0F9A3E0FAA3E0FB12D91A85
:100F3D0040237F147EAE7D8F7C40900DCEE0F8A3D4
:100F4D00E0F9A3E0FAA3E0FB12D91A5008900DD2F4
:100F5D00E4F0A304F07F147EAE7D8F7C40900DCE27
:100F6D00E0F8A3E0F9A3E0FAA3E0FB12D91A60269A
:100F7D0040247FCD7ECC7D947C40900DCEE0F8A3B7
:100F8D00E0F9A3E0FAA3E0FB12D91A5009900DD2B3
:100F9D00E4F0A37402F07FCD7ECC7D947C40900D67
:100FAD00CEE0F8A3E0F9A3E0FAA3E0FB12D91A60B2
:100FBD002640247FC37EF57D987C40900DCEE0F8D1
:100FCD00A3E0F9A3E0FAA3E0FB12D91A5009900DA2
:100FDD00D2E4F0A37403F07FC37EF57D987C40903E
:100FED000DCEE0F8A3E0F9A3E0FAA3E0FB12D91AC5
:100FFD00602640247F0A7ED77D9B7C40900DCEE0FD
:10100D00F8A3E0F9A3E0FAA3E0FB12D91A50099076
:10101D000DD2E4F0A37404F07F0A7ED77D9B7C4053
:10102D00900DCEE0F8A3E0F9A3E0FAA3E0FB12D90E
:10103D001A602640247F667E667D9E7C40900DCE94
:10104D00E0F8A3E0F9A3E0FAA3E0FB12D91A5009E6
:10105D00900DD2E4F0A37405F07F667E667D9E7CD4
:10106D0040900DCEE0F8A3E0F9A3E0FAA3E0FB1267
:10107D00D91A602640247FD77EA37DA07C40900D99
:10108D00CEE0F8A3E0F9A3E0FAA3E0FB12D91A50E1
:10109D0009900DD2E4F0A37406F07FD77EA37DA056
:1010AD007C40900DCEE0F8A3E0F9A3E0FAA3E0FBBD
:1010BD0012D91A602640247F337E337DA37C409065
:1010CD000DCEE0F8A3E0F9A3E0FAA3E0FB12D91AE4
:1010DD005009900DD2E4F0A37407F07F337E337D79
:1010ED00A37C40900DCEE0F8A3E0F9A3E0FAA3E0D5
:1010FD00FB12D91A602640247FCD7ECC7DA47C4086
:10110D00900DCEE0F8A3E0F9A3E0FAA3E0FB12D92D
:10111D001A5009900DD2E4F0A37408F07FCD7ECC67
:10112D007DA47C40900DCEE0F8A3E0F9A3E0FAA3F6
:10113D00E0FB12D91A40247F527EB87DA67C4090E8
:10114D000DCEE0F8A3E0F9A3E0FAA3E0FB12D91A63
:10115D005009900DD2E4F0A37409F07F527EB87D52
:10116D00A67C40900DCEE0F8A3E0F9A3E0FAA3E051
:10117D00FB12D91A602640247FD77EA37DA87C4020
:10118D00900DCEE0F8A3E0F9A3E0FAA3E0FB12D9AD
:10119D001A5009900DD2E4F0A3740AF07FD77EA304
:1011AD007DA87C40900DCEE0F8A3E0F9A3E0FAA372
:1011BD00E0FB12D91A602640247F5C7E8F7DAA7CCD
:1011CD0040900DCEE0F8A3E0F9A3E0FAA3E0FB1206
:1011DD00D91A5009900DD2E4F0A3740BF07F5C7E08
:1011ED008F7DAA7C40900DCEE0F8A3E0F9A3E0FA44
:1011FD00A3E0FB12D91A602640247FF67E287DAC31
:10120D007C40900DCEE0F8A3E0F9A3E0FAA3E0FB5B
:10121D0012D91A5009900DD2E4F0A3740CF07FF698
:10122D007E287DAC7C40900DCEE0F8A3E0F9A3E0E4
:10123D00FAA3E0FB12D91A602640247F8F7EC27D6F
:10124D00AD7C40900DCEE0F8A3E0F9A3E0FAA3E069
:10125D00FB12D91A5009900DD2E4F0A3740DF07F52
:10126D008F7EC27DAD7C40900DCEE0F8A3E0F9A35A
:10127D00E0FAA3E0FB12D91A602640247F147EAE5B
:10128D007DAF7C40900DCEE0F8A3E0F9A3E0FAA38A
:10129D00E0FB12D91A5009900DD2E4F0A3740EF0B0
:1012AD007F147EAE7DAF7C40900DCEE0F8A3E0F9CB
:1012BD00A3E0FAA3E0FB12D91A602640247FAE7E8C
:1012CD00477DB17C40900DCEE0F8A3E0F9A3E0FAA4
:1012DD00A3E0FB12D91A5009900DD2E4F0A3740FBC
:1012ED00F07FAE7E477DB17C40900DCEE0F8A3E05F
:1012FD00F9A3E0FAA3E0FB12D91A602640247F4837
:10130D007EE17DB27C40900DCEE0F8A3E0F9A3E044
:10131D00FAA3E0FB12D91A5009900DD2E4F0A37490
:0A132D0010F0900DD2E0FEA3E0FFE7
:011337002293
:10133800E4900DD0F0A3F0FDFCC3900DD1E0941023
:10134800900DD0E064809480503590002575F02C85
:10135800EF12DDA2EE75F02CA42583F583E5822D2E
:10136800F582EC3583F5837420F0900DD1E004F01C
:0F1378007006900DD0E004F00DBD00010C80BA9E
:011387002243
:10138800900D68E07004A3E064017005FFFE12137D
:021398009A2297
:08139A00900DA5EEF0A3EFF0A9
:1013A200900DC412DD7100000000900DC812DD71B5
:1013B20000000000900DCC12DD7100000000900DC5
:1013C20028E0600302197D7F10FE1213389094000A
:1013D200740AF0120003120003120003E0FF900DE2
:1013E20020F07C007D0312DD43CCEECCCDEFCDECC2
:1013F20012D98C7B0E7A2D7982783F12D7787BAE08
:101402007AC77985784212D881900DC412DD659031
:101412000D20E0FF7E007C007D0312DD43CCEECC8C
:10142200CDEFCDEC12D98C7B0E7A2D7982783F12DA
:10143200D7787BAE7AC77985784212D881900DC869
:1014420012DD65900D7874FFF0A37450F0A374055B
:10145200F0900DC8E0FCA3E0FDA3E0FEA3E0FF9046
:101462000D7B12DD657B017A0D79BF12DF427B01B4
:101472007A0D79BF12E353900DCC12DD657F007EA9
:10148200007D007C3F900DCCE0F8A3E0F9A3E0FAE8
:10149200A3E0FB12D91A507A900D7874FFF0A3746E
:1014A2004FF0A374AAF0A374FFF0A37450F0A374D6
:1014B2000BF07B017A0D79AB12DF42E4900DA7F0BD
:1014C200A3F0A3F0A3F0C3900DA8E09410900DA791
:1014D200E09400503DA3E024ABF582E4340DF583A3
:1014E200E0FF900DA9E0FCA3E024E5F582EC3402D4
:1014F200F583EFF0900DA8E004F07006900DA7E0E0
:1015020004F0900DAAE004F07006900DA9E004F03A
:1015120080B47F007E007D007C41900DCCE0F8A37A
:10152200E0F9A3E0FAA3E0FB12D91A607C407A90BA
:101532000D7874FFF0A3744FF0A374AAF0A374FFA4
:10154200F0A37450F0A3741CF07B017A0D79AB12F6
:10155200DF42E4900DA7F0A3F0A3F0A3F0C3900D37
:10156200A8E09410900DA7E09400503DA3E024ABB6
:10157200F582E4340DF583E0FF900DA9E0FCA3E0D1
:1015820024E5F582EC3402F583EFF0900DA8E00437
:10159200F07006900DA7E004F0900DAAE004F07040
:1015A20006900DA9E004F080B47F667E667D067C1D
:1015B20040900DC4E0F8A3E0F9A3E0FAA3E0FB1227
:1015C200D91A50257F9A7E997D197C3F900DC4E0EF
:1015D200F8A3E0F9A3E0FAA3E0FB12D91A600A40EB
:1015E20008900DA5E4F0A304F07F667E667D267C5C
:1015F20040900DC4E0F8A3E0F9A3E0FAA3E0FB12E7
:10160200D91A50267F667E667D067C40900DC4E026
:10161200F8A3E0F9A3E0FAA3E0FB12D91A600B40A9
:1016220009900DA5E4F0A37402F07F9A7E997D39AA
:101632007C40900DC4E0F8A3E0F9A3E0FAA3E0FB3C
:1016420012D91A50267F667E667D267C40900DC494
:10165200E0F8A3E0F9A3E0FAA3E0FB12D91A600BC9
:101662004009900DA5E4F0A37403F07F007E007D95
:10167200407C40900DC4E0F8A3E0F9A3E0FAA3E0B7
:10168200FB12D91A50267F9A7E997D397C40900DA3
:10169200C4E0F8A3E0F9A3E0FAA3E0FB12D91A60D0
:1016A2000B4009900DA5E4F0A37404F07F337E3360
:1016B2007D537C40900DC4E0F8A3E0F9A3E0FAA3C7
:1016C200E0FB12D91A50267F007E007D407C4090BC
:1016D2000DC4E0F8A3E0F9A3E0FAA3E0FB12D91AE3
:1016E200600B4009900DA5E4F0A37405F07F667EBF
:1016F200667D967C40900DC4E0F8A3E0F9A3E0FA81
:10170200A3E0FB12D91A50267F337E337D537C40EF
:10171200900DC4E0F8A3E0F9A3E0FAA3E0FB12D92C
:101722001A600B4009900DA5E4F0A37406F07F9AAD
:101732007E997D997C40900DC4E0F8A3E0F9A3E086
:10174200FAA3E0FB12D91A50267F667E667D967C4C
:1017520040900DC4E0F8A3E0F9A3E0FAA3E0FB1285
:10176200D91A600B4009900DA5E4F0A37407F07F2D
:10177200337E337DA37C40900DC4E0F8A3E0F9A34F
:10178200E0FAA3E0FB12D91A50267F9A7E997D993E
:101792007C40900DC4E0F8A3E0F9A3E0FAA3E0FBDB
:1017A20012D91A600B4009900DA5E4F0A37408F059
:1017B2007F007E007DB07C40900DC4E0F8A3E0F98C
:1017C200A3E0FAA3E0FB12D91A50267F337E337DC1
:1017D200A37C40900DC4E0F8A3E0F9A3E0FAA3E0F3
:1017E200FB12D91A600B4009900DA5E4F0A374090D
:1017F200F07F337E337DC37C40900DC4E0F8A3E0DC
:10180200F9A3E0FAA3E0FB12D91A50267F007E006A
:101812007DB07C40900DC4E0F8A3E0F9A3E0FAA308
:10182200E0FB12D91A600B4009900DA5E4F0A374F5
:101832000AF07F9A7E997DD97C40900DC4E0F8A38E
:10184200E0F9A3E0FAA3E0FB12D91A50267F337E17
:10185200337DC37C40900DC4E0F8A3E0F9A3E0FA25
:10186200A3E0FB12D91A600B4009900DA5E4F0A386
:10187200740BF07FCD7ECC7DEC7C40900DC4E0F803
:10188200A3E0F9A3E0FAA3E0FB12D91A50267F9A4B
:101892007E997DD97C40900DC4E0F8A3E0F9A3E0E5
:1018A200FAA3E0FB12D91A600B4009900DA5E4F0EF
:1018B200A3740CF07F007E007DF07C40900DC4E0AC
:1018C200F8A3E0F9A3E0FAA3E0FB12D91A50267FAD
:1018D200CD7ECC7DEC7C40900DC4E0F8A3E0F9A372
:1018E200E0FAA3E0FB12D91A600B4009900DA5E4BF
:1018F200F0A3740DF07F007E007D007C41900DC44A
:10190200E0F8A3E0F9A3E0FAA3E0FB12D91A50260B
:101912007F007E007DF07C40900DC4E0F8A3E0F9EA
:10192200A3E0FAA3E0FB12D91A600B4009900DA5BF
:10193200E4F0A3740EF0E4900DA7F0A3F0900DA5CF
:10194200E0FEA3E0FFA3E0FCA3E0FDC39FEC9E50FA
:101952001D74E52DF582EC3402F58374FFF0900DD1
:10196200A8E004F07006900DA7E004F080CF7B01A0
:101972007A0279D112C48C120003227F107E0012E7
:101982001338909400740AF012000312000312003C
:1019920003E0FF900D20F07C007D0312DD43CCEECE
:1019A200CCCDEFCDEC12D98C7B0E7A2D7982783F9B
:1019B20012D7787BAE7AC77985784212D881900D9A
:1019C200C412DD65900D20E0FF7E007C007D0312D5
:1019D200DD43CCEECCCDEFCDEC12D98C7B0E7A2D43
:1019E2007982783F12D7787BAE7AC77985784212AE
:1019F200D881900DC812DD65900D7874FFF0A37444
:101A020050F0A37405F0900DC8E0FCA3E0FDA3E044
:101A1200FEA3E0FF900D7B12DD657B017A0D79BF9D
:101A220012DF427B017A0D79BF12E353900DCC1283
:101A3200DD657FCD7ECC7D4C7C3F900DCCE0F8A364
:101A4200E0F9A3E0FAA3E0FB12D91A507A900D78DC
:101A520074FFF0A3744FF0A374AAF0A374FFF0A371
:101A62007450F0A3740BF07B017A0D79AB12DF4254
:101A7200E4900DA7F0A3F0A3F0A3F0C3900DA8E0AB
:101A82009410900DA7E09400503DA3E024ABF582A2
:101A9200E4340DF583E0FF900DA9E0FCA3E024E51A
:101AA200F582EC3402F583EFF0900DA8E004F070BB
:101AB20006900DA7E004F0900DAAE004F0700690E5
:101AC2000DA9E004F080B47F9A7E997D897C4090D4
:101AD2000DCCE0F8A3E0F9A3E0FAA3E0FB12D91AD7
:101AE200607C407A900D7874FFF0A3744FF0A37479
:101AF200AAF0A374FFF0A37450F0A3742DF07B013D
:101B02007A0D79AB12DF42E4900DA7F0A3F0A3F0B7
:101B1200A3F0C3900DA8E09410900DA7E09400509C
:101B22003DA3E024ABF582E4340DF583E0FF900D94
:101B3200A9E0FCA3E024E5F582EC3402F583EFF0A2
:101B4200900DA8E004F07006900DA7E004F0900D4F
:101B5200AAE004F07006900DA9E004F080B47FCDF5
:101B62007ECC7D8C7C3F900DC4E0F8A3E0F9A3E02D
:101B7200FAA3E0FB12D91A50257F667E667D667C49
:101B82003F900DC4E0F8A3E0F9A3E0FAA3E0FB1252
:101B9200D91A600A4008900DA5E4F0A304F07F9AD8
:101BA2007E997D997C3F900DC4E0F8A3E0F9A3E013
:101BB200FAA3E0FB12D91A50267FCD7ECC7D8C7C15
:101BC2003F900DC4E0F8A3E0F9A3E0FAA3E0FB1212
:101BD200D91A600B4009900DA5E4F0A37402F07FBE
:101BE200337E337DB37C3F900DC4E0F8A3E0F9A3CC
:101BF200E0FAA3E0FB12D91A50267F9A7E997D99CA
:101C02007C3F900DC4E0F8A3E0F9A3E0FAA3E0FB67
:101C120012D91A600B4009900DA5E4F0A37403F0E9
:101C22007F9A7E997DD97C3F900DC4E0F8A3E0F9BC
:101C3200A3E0FAA3E0FB12D91A50267F337E337D4C
:101C4200B37C3F900DC4E0F8A3E0F9A3E0FAA3E06F
:101C5200FB12D91A600B4009900DA5E4F0A374049D
:101C6200F07F007E007D007C40900DC4E0F8A3E090
:101C7200F9A3E0FAA3E0FB12D91A50267F9A7E99C3
:101C82007DD97C3F900DC4E0F8A3E0F9A3E0FAA36C
:101C9200E0FB12D91A600B4009900DA5E4F0A37481
:101CA20005F07F337E337D137C40900DC4E0F8A3B2
:101CB200E0F9A3E0FAA3E0FB12D91A50267F007ED6
:101CC200007D007C40900DC4E0F8A3E0F9A3E0FAA7
:101CD200A3E0FB12D91A600B4009900DA5E4F0A312
:101CE2007406F07F667E667D267C40900DC4E0F827
:101CF200A3E0F9A3E0FAA3E0FB12D91A50267F333E
:101D02007E337D137C40900DC4E0F8A3E0F9A3E09C
:101D1200FAA3E0FB12D91A600B4009900DA5E4F07A
:101D2200A37407F07F9A7E997D397C40900DC4E0C0
:101D3200F8A3E0F9A3E0FAA3E0FB12D91A50267F38
:101D4200667E667D267C40900DC4E0F8A3E0F9A390
:101D5200E0FAA3E0FB12D91A600B4009900DA5E44A
:101D6200F0A37408F07F007E007D407C40900DC49B
:101D7200E0F8A3E0F9A3E0FAA3E0FB12D91A502697
:101D82007F9A7E997D397C40900DC4E0F8A3E0F9FA
:101D9200A3E0FAA3E0FB12D91A600B4009900DA54B
:101DA200E4F0A37409F07F9A7E997D597C40900DEE
:101DB200C4E0F8A3E0F9A3E0FAA3E0FB12D91A50B9
:101DC200267F007E007D407C40900DC4E0F8A3E0B9
:101DD200F9A3E0FAA3E0FB12D91A600B4009900DB7
:101DE200A5E4F0A3740AF07FCD7ECC7D6C7C40909C
:101DF2000DC4E0F8A3E0F9A3E0FAA3E0FB12D91ABC
:101E020050267F9A7E997D597C40900DC4E0F8A3BC
:101E1200E0F9A3E0FAA3E0FB12D91A600B400990A3
:101E22000DA5E4F0A3740BF07F007E007D807C4062
:101E3200900DC4E0F8A3E0F9A3E0FAA3E0FB12D905
:101E42001A50267FCD7ECC7D6C7C40900DC4E0F88C
:101E5200A3E0F9A3E0FAA3E0FB12D91A600B400950
:101E6200900DA5E4F0A3740CF07F9A7E997D897C95
:101E720040900DC4E0F8A3E0F9A3E0FAA3E0FB125E
:101E8200D91A50267F007E007D807C40900DC4E0F0
:101E9200F8A3E0F9A3E0FAA3E0FB12D91A600B4021
:101EA20009900DA5E4F0A3740DF0E4900DA7F0A342
:101EB200F0900DA5E0FEA3E0FFA3E0FCA3E0FDC3CC
:101EC2009FEC9E501D74E52DF582EC3402F583746F
:101ED200FFF0900DA8E004F07006900DA7E004F06A
:0E1EE20080CF7B017A0279D112C48C120003EA
:011EF00022CF
:101EF100900D38E064016003021F87C240C239A21D
:101F01003A72399206F0900D2AF0D23CA23C823B03
:101F1100823D9201909200E520F0909000E528F03A
:101F210078A57C0D7D017BFF7A50793E12DEC0E4FD
:101F3100900DB9F0A3F0A3F0A3F0C3900DBAE09413
:101F41000E900DB9E09400503DA3E024A5F582E484
:101F5100340DF583E0FF900DBBE0FCA3E024EDF52B
:101F610082EC3403F583EFF0900DBAE004F07006D3
:101F7100900DB9E004F0900DBCE004F07006900DF6
:101F8100BBE004F080B4900D3BE0640160030220EB
:101F91001DC243C23AA23A72399206F0900D2BF05B
:101FA100D23DA23C823B823D9201909200E520F01D
:101FB100909000E528F078A57C0D7D017BFF7A509B
:101FC100793E12DEC0E4900DB9F0A3F0A3F0A3F0C6
:101FD100C3900DBAE0940E900DB9E09400503DA36A
:101FE100E024A5F582E4340DF583E0FF900DBBE01C
:101FF100FCA3E02419F582EC3404F583EFF0900D95
:10200100BAE004F07006900DB9E004F0900DBCE068
:1020110004F07006900DBBE004F080B4900D3EE03A
:10202100640160030224187F09900D59E0FD123B01
:102031007AC241C242C239A23A72399206E4900D83
:102041003EF0900D2CF0D23CA23C823B823D9201AD
:10205100909200E520F0909000E528F078A57C0DA5
:102061007D017BFF7A50793E12DEC0900D59E0640C
:10207100017056900DB9F0A3F0A3F0A3F0C3900D39
:10208100BAE0940E900DB9E09400503DA3E024A570
:10209100F582E4340DF583E0FF900DBBE0FCA3E095
:1020A1002455F582EC3406F583EFF0900DBAE00487
:1020B100F07006900DB9E004F0900DBCE004F070F2
:1020C10006900DBBE004F080B4900D59E0640270FD
:1020D10056900DB9F0A3F0A3F0A3F0C3900DBAE0B0
:1020E100940E900DB9E09400503DA3E024A5F58233
:1020F100E4340DF583E0FF900DBBE0FCA3E024ADDB
:10210100F582EC3406F583EFF0900DBAE004F0703F
:1021110006900DB9E004F0900DBCE004F07006905B
:102121000DBBE004F080B4900D59E064037056904B
:102131000DB9F0A3F0A3F0A3F0C3900DBAE0940E93
:10214100900DB9E09400503DA3E024A5F582E4345C
:102151000DF583E0FF900DBBE0FCA3E02405F582C3
:10216100EC3407F583EFF0900DBAE004F0700690BF
:102171000DB9E004F0900DBCE004F07006900DBBC9
:10218100E004F080B4900D59E064047056900DB9EC
:10219100F0A3F0A3F0A3F0C3900DBAE0940E900D5C
:1021A100B9E09400503DA3E024A5F582E4340DF597
:1021B10083E0FF900DBBE0FCA3E0245DF582EC34ED
:1021C10007F583EFF0900DBAE004F07006900DB9B9
:1021D100E004F0900DBCE004F07006900DBBE0044B
:1021E100F080B4900D59E064057056900DB9F0A3DC
:1021F100F0A3F0A3F0C3900DBAE0940E900DB9E0F6
:102201009400503DA3E024A5F582E4340DF583E06C
:10221100FF900DBBE0FCA3E024B5F582EC3407F59B
:1022210083EFF0900DBAE004F07006900DB9E00470
:10223100F0900DBCE004F07006900DBBE004F0805E
:10224100B4900D59E064067056900DB9F0A3F0A357
:10225100F0A3F0C3900DBAE0940E900DB9E0940094
:10226100503DA3E024A5F582E4340DF583E0FF9011
:102271000DBBE0FCA3E0240DF582EC3408F583EFFF
:10228100F0900DBAE004F07006900DB9E004F09002
:102291000DBCE004F07006900DBBE004F080B4903A
:1022A1000D59E064077056900DB9F0A3F0A3F0A3A7
:1022B100F0C3900DBAE0940E900DB9E09400503D3A
:1022C100A3E024A5F582E4340DF583E0FF900DBB76
:1022D100E0FCA3E02465F582EC3408F583EFF0908F
:1022E1000DBAE004F07006900DB9E004F0900DBC59
:1022F100E004F07006900DBBE004F080B4900D593D
:10230100E064087056900DB9F0A3F0A3F0A3F0C3F8
:10231100900DBAE0940E900DB9E09400503DA3E009
:1023210024A5F582E4340DF583E0FF900DBBE0FCBC
:10233100A3E024BDF582EC3408F583EFF0900DBAEB
:10234100E004F07006900DB9E004F0900DBCE004DB
:10235100F07006900DBBE004F080B4900D59E0647C
:10236100097056900DB9F0A3F0A3F0A3F0C3900D3E
:10237100BAE0940E900DB9E09400503DA3E024A57D
:10238100F582E4340DF583E0FF900DBBE0FCA3E0A2
:102391002415F582EC3409F583EFF0900DBAE004D1
:1023A100F07006900DB9E004F0900DBCE004F070FF
:1023B10006900DBBE004F080B4900D59E0640A7002
:1023C10056900DB9F0A3F0A3F0A3F0C3900DBAE0BD
:1023D100940E900DB9E09400503DA3E024A5F58240
:1023E100E4340DF583E0FF900DBBE0FCA3E0246D28
:1023F100F582EC3409F583EFF0900DBAE004F0704A
:1024010006900DB9E004F0900DBCE004F070069068
:102411000DBBE004F080B4900D41E0640160030263
:1024210028137F0A900D59E0FD123B7AC244C24540
:10243100C23AA23A72399206E4900D41F0900D2D04
:10244100F0D23DA23C823B823D9201909200E52078
:10245100F0909000E528F078A57C0D7D017BFF7A56
:1024610050793E12DEC0900D59E064017056900D16
:10247100B9F0A3F0A3F0A3F0C3900DBAE0940E90CD
:102481000DB9E09400503DA3E024A5F582E4340D9C
:10249100F583E0FF900DBBE0FCA3E02481F582EC25
:1024A1003406F583EFF0900DBAE004F07006900D5C
:1024B100B9E004F0900DBCE004F07006900DBBE0B3
:1024C10004F080B4900D59E064027056900DB9F09B
:1024D100A3F0A3F0A3F0C3900DBAE0940E900DB950
:1024E100E09400503DA3E024A5F582E4340DF5838A
:1024F100E0FF900DBBE0FCA3E024D9F582EC3406AB
:10250100F583EFF0900DBAE004F07006900DB9E09C
:1025110004F0900DBCE004F07006900DBBE004F0F7
:1025210080B4900D59E064037056900DB9F0A3F09A
:10253100A3F0A3F0C3900DBAE0940E900DB9E0940E
:1025410000503DA3E024A5F582E4340DF583E0FFBE
:10255100900DBBE0FCA3E02431F582EC3407F58358
:10256100EFF0900DBAE004F07006900DB9E004F0C0
:10257100900DBCE004F07006900DBBE004F080B457
:10258100900D59E064047056900DB9F0A3F0A3F0DA
:10259100A3F0C3900DBAE0940E900DB9E0940050F1
:1025A1003DA3E024A5F582E4340DF583E0FF900D11
:1025B100BBE0FCA3E02489F582EC3407F583EFF05E
:1025C100900DBAE004F07006900DB9E004F0900DA2
:1025D100BCE004F07006900DBBE004F080B4900DF7
:1025E10059E064057056900DB9F0A3F0A3F0A3F083
:1025F100C3900DBAE0940E900DB9E09400503DA344
:10260100E024A5F582E4340DF583E0FF900DBBE0F5
:10261100FCA3E024E1F582EC3407F583EFF0900DA3
:10262100BAE004F07006900DB9E004F0900DBCE042
:1026310004F07006900DBBE004F080B4900D59E0F9
:1026410064067056900DB9F0A3F0A3F0A3F0C39007
:102651000DBAE0940E900DB9E09400503DA3E02432
:10266100A5F582E4340DF583E0FF900DBBE0FCA3FA
:10267100E02439F582EC3408F583EFF0900DBAE0EF
:1026810004F07006900DB9E004F0900DBCE004F088
:102691007006900DBBE004F080B4900D59E0640722
:1026A1007056900DB9F0A3F0A3F0A3F0C3900DBA4A
:1026B100E0940E900DB9E09400503DA3E024A5F5FF
:1026C10082E4340DF583E0FF900DBBE0FCA3E02430
:1026D10091F582EC3408F583EFF0900DBAE004F047
:1026E1007006900DB9E004F0900DBCE004F07006A6
:1026F100900DBBE004F080B4900D59E06408705671
:10270100900DB9F0A3F0A3F0A3F0C3900DBAE0943B
:102711000E900DB9E09400503DA3E024A5F582E4AC
:10272100340DF583E0FF900DBBE0FCA3E024E9F557
:1027310082EC3408F583EFF0900DBAE004F07006F6
:10274100900DB9E004F0900DBCE004F07006900D1E
:10275100BBE004F080B4900D59E064097056900D0F
:10276100B9F0A3F0A3F0A3F0C3900DBAE0940E90DA
:102771000DB9E09400503DA3E024A5F582E4340DA9
:10278100F583E0FF900DBBE0FCA3E02441F582EC72
:102791003409F583EFF0900DBAE004F07006900D66
:1027A100B9E004F0900DBCE004F07006900DBBE0C0
:1027B10004F080B4900D59E0640A7056900DB9F0A0
:1027C100A3F0A3F0A3F0C3900DBAE0940E900DB95D
:1027D100E09400503DA3E024A5F582E4340DF58397
:1027E100E0FF900DBBE0FCA3E02499F582EC3409F5
:1027F100F583EFF0900DBAE004F07006900DB9E0AA
:1028010004F0900DBCE004F07006900DBBE004F004
:0228110080B491
:0128130022A2
:10281400908600E0F4F524302324900003E004F0D3
:10282400D394074051E4F0A22333FFA3E06F600B7D
:10283400EFF03025037F02227F01227F0022302423
:1028440024900005E004F0D394074028E4F0A22487
:1028540033FFA3E06F600BEFF03025037F04227F8A
:1028640003227F0022E4900005F0900003F0A3F01F
:06287400900006F07F0059
:01287A00223B
:10287B00122814900D29EFF0908C00E0540F900D5E
:10288B001EF0909000E528F0EF24FE70030229D78C
:10289B00147003022B0914700302334024036003EA
:1028AB00023B79200F03023B79204003022948C2E7
:1028BB0040E4900D2AF0C239A23A72399206D23C0A
:1028CB00A23C823B823D9201909200E520F09090D9
:1028DB0000E528F078A57C0D7D017BFF7A50793ED1
:1028EB0012DEC0E4900DB9F0A3F0A3F0A3F0C390F7
:1028FB000DBAE0940E900DB9E094004003023B79C1
:10290B00A3E024A5F582E4340DF583E0FF900DBB25
:10291B00E0FCA3E024EDF582EC3403F583EFF090BB
:10292B000DBAE004F07006900DB9E004F0900DBC08
:10293B00E004F07006900DBBE004F080B1D2409043
:10294B000D2A7401F0D239A23A72399206C23CA216
:10295B003C823B823D9201909200E520F0909000EA
:10296B00E528F078A57C0D7D017BFF7A50794E121E
:10297B00DEC0E4900DB9F0A3F0A3F0A3F0C3900D6B
:10298B00BAE0940E900DB9E094004003023B79A39A
:10299B00E024A5F582E4340DF583E0FF900DBBE058
:1029AB00FCA3E024EDF582EC3403F583EFF0900DFE
:1029BB00BAE004F07006900DB9E004F0900DBCE0A5
:1029CB0004F07006900DBBE004F080B1900D28E090
:1029DB007003023B79200F03023B79204303022A49
:1029EB007AC243E4900D2BF0C23AA23A72399206A6
:1029FB00D23DA23C823B823D9201909200E520F0B9
:102A0B00909000E528F078A57C0D7D017BFF7A5036
:102A1B00793E12DEC0E4900DB9F0A3F0A3F0A3F061
:102A2B00C3900DBAE0940E900DB9E09400400302F0
:102A3B003B79A3E024A5F582E4340DF583E0FF9008
:102A4B000DBBE0FCA3E02419F582EC3404F583EF15
:102A5B00F0900DBAE004F07006900DB9E004F09020
:102A6B000DBCE004F07006900DBBE004F080B1D219
:102A7B0043900D2B7401F0D23AA23A72399206C2EE
:102A8B003DA23C823B823D9201909200E520F0906A
:102A9B009000E528F078A57C0D7D017BFF7A5079BD
:102AAB004E12DEC0E4900DB9F0A3F0A3F0A3F0C377
:102ABB00900DBAE0940E900DB9E094004003023BE8
:102ACB0079A3E024A5F582E4340DF583E0FF900DA6
:102ADB00BBE0FCA3E02419F582EC3404F583EFF0A2
:102AEB00900DBAE004F07006900DB9E004F0900D73
:102AFB00BCE004F07006900DBBE004F080B1900DCB
:102B0B001EE0FFC394015003023336EFD3940A4007
:102B1B0003023336300F03023B79301003023B794B
:102B2B00204103022F217F09900D5BE0FD123B7AC0
:102B3B00C241E4900D2CF0C239A23A72399206D2FE
:102B4B003CA23C823B823D9201909200E520F090AA
:102B5B009000E528F078A57C0D7D017BFF7A5079FC
:102B6B003E12DEC0900D5BE064017056900DB9F023
:102B7B00A3F0A3F0A3F0C3900DBAE0940E900DB99F
:102B8B00E09400503DA3E024A5F582E4340DF583D9
:102B9B00E0FF900DBBE0FCA3E02455F582EC34067E
:102BAB00F583EFF0900DBAE004F07006900DB9E0EC
:102BBB0004F0900DBCE004F07006900DBBE004F047
:102BCB0080B4900D5BE064027056900DB9F0A3F0E9
:102BDB00A3F0A3F0C3900DBAE0940E900DB9E0945E
:102BEB0000503DA3E024A5F582E4340DF583E0FF0E
:102BFB00900DBBE0FCA3E024ADF582EC3406F5832D
:102C0B00EFF0900DBAE004F07006900DB9E004F00F
:102C1B00900DBCE004F07006900DBBE004F080B4A6
:102C2B00900D5BE064037056900DB9F0A3F0A3F028
:102C3B00A3F0C3900DBAE0940E900DB9E094005040
:102C4B003DA3E024A5F582E4340DF583E0FF900D60
:102C5B00BBE0FCA3E02405F582EC3407F583EFF031
:102C6B00900DBAE004F07006900DB9E004F0900DF1
:102C7B00BCE004F07006900DBBE004F080B4900D46
:102C8B005BE064047056900DB9F0A3F0A3F0A3F0D1
:102C9B00C3900DBAE0940E900DB9E09400503DA393
:102CAB00E024A5F582E4340DF583E0FF900DBBE045
:102CBB00FCA3E0245DF582EC3407F583EFF0900D77
:102CCB00BAE004F07006900DB9E004F0900DBCE092
:102CDB0004F07006900DBBE004F080B4900D5BE047
:102CEB0064057056900DB9F0A3F0A3F0A3F0C39058
:102CFB000DBAE0940E900DB9E09400503DA3E02482
:102D0B00A5F582E4340DF583E0FF900DBBE0FCA349
:102D1B00E024B5F582EC3407F583EFF0900DBAE0C3
:102D2B0004F07006900DB9E004F0900DBCE004F0D7
:102D3B007006900DBBE004F080B4900D5BE0640670
:102D4B007056900DB9F0A3F0A3F0A3F0C3900DBA99
:102D5B00E0940E900DB9E09400503DA3E024A5F54E
:102D6B0082E4340DF583E0FF900DBBE0FCA3E0247F
:102D7B000DF582EC3408F583EFF0900DBAE004F01A
:102D8B007006900DB9E004F0900DBCE004F07006F5
:102D9B00900DBBE004F080B4900D5BE064077056BF
:102DAB00900DB9F0A3F0A3F0A3F0C3900DBAE0948B
:102DBB000E900DB9E09400503DA3E024A5F582E4FC
:102DCB00340DF583E0FF900DBBE0FCA3E02465F52B
:102DDB0082EC3408F583EFF0900DBAE004F0700646
:102DEB00900DB9E004F0900DBCE004F07006900D6E
:102DFB00BBE004F080B4900D5BE064087056900D5E
:102E0B00B9F0A3F0A3F0A3F0C3900DBAE0940E9029
:102E1B000DB9E09400503DA3E024A5F582E4340DF8
:102E2B00F583E0FF900DBBE0FCA3E024BDF582EC45
:102E3B003408F583EFF0900DBAE004F07006900DB6
:102E4B00B9E004F0900DBCE004F07006900DBBE00F
:102E5B0004F080B4900D5BE064097056900DB9F0EE
:102E6B00A3F0A3F0A3F0C3900DBAE0940E900DB9AC
:102E7B00E09400503DA3E024A5F582E4340DF583E6
:102E8B00E0FF900DBBE0FCA3E02415F582EC3409C8
:102E9B00F583EFF0900DBAE004F07006900DB9E0F9
:102EAB0004F0900DBCE004F07006900DBBE004F054
:102EBB0080B4900D5BE0640A6003023B79900DB91E
:102ECB00F0A3F0A3F0A3F0C3900DBAE0940E900D15
:102EDB00B9E094004003023B79A3E024A5F582E41A
:102EEB00340DF583E0FF900DBBE0FCA3E0246DF502
:102EFB0082EC3409F583EFF0900DBAE004F0700624
:102F0B00900DB9E004F0900DBCE004F07006900D4C
:102F1B00BBE004F080B1900D1EE0FE20E0127F07B5
:102F2B0014FD123B7A900D1EE014900D5BF0801493
:102F3B007F07900D1EE004FD123B7A900D1EE004FE
:102F4B00900D5BF0D241900D2C7401F0D239A23A66
:102F5B0072399206C23CA23C823B823D9201909216
:102F6B0000E520F0909000E528F078A57C0D7D0120
:102F7B007BFF7A50795E12DEC0900D1EE06401700B
:102F8B0056900DB9F0A3F0A3F0A3F0C3900DBAE0E7
:102F9B00940E900DB9E09400503DA3E024A5F5826A
:102FAB00E4340DF583E0FF900DBBE0FCA3E024556A
:102FBB00F582EC3406F583EFF0900DBAE004F07077
:102FCB0006900DB9E004F0900DBCE004F070069093
:102FDB000DBBE004F080B4900D1EE06402705690BF
:102FEB000DB9F0A3F0A3F0A3F0C3900DBAE0940ECB
:102FFB00900DB9E09400503DA3E024A5F582E43494
:10300B000DF583E0FF900DBBE0FCA3E024ADF58252
:10301B00EC3406F583EFF0900DBAE004F0700690F7
:10302B000DB9E004F0900DBCE004F07006900DBB00
:10303B00E004F080B4900D1EE064037056900DB95F
:10304B00F0A3F0A3F0A3F0C3900DBAE0940E900D93
:10305B00B9E09400503DA3E024A5F582E4340DF5CE
:10306B0083E0FF900DBBE0FCA3E02405F582EC347C
:10307B0007F583EFF0900DBAE004F07006900DB9F0
:10308B00E004F0900DBCE004F07006900DBBE00482
:10309B00F080B4900D1EE064047056900DB9F0A34F
:1030AB00F0A3F0A3F0C3900DBAE0940E900DB9E02D
:1030BB009400503DA3E024A5F582E4340DF583E0A4
:1030CB00FF900DBBE0FCA3E0245DF582EC3407F52B
:1030DB0083EFF0900DBAE004F07006900DB9E004A8
:1030EB00F0900DBCE004F07006900DBBE004F08096
:1030FB00B4900D1EE064057056900DB9F0A3F0A3CB
:10310B00F0A3F0C3900DBAE0940E900DB9E09400CB
:10311B00503DA3E024A5F582E4340DF583E0FF9048
:10312B000DBBE0FCA3E024B5F582EC3407F583EF8F
:10313B00F0900DBAE004F07006900DB9E004F09039
:10314B000DBCE004F07006900DBBE004F080B49071
:10315B000D1EE064067056900DB9F0A3F0A3F0A31A
:10316B00F0C3900DBAE0940E900DB9E09400503D71
:10317B00A3E024A5F582E4340DF583E0FF900DBBAD
:10318B00E0FCA3E0240DF582EC3408F583EFF0901E
:10319B000DBAE004F07006900DB9E004F0900DBC90
:1031AB00E004F07006900DBBE004F080B4900D1EAF
:1031BB00E064077056900DB9F0A3F0A3F0A3F0C331
:1031CB00900DBAE0940E900DB9E09400503DA3E041
:1031DB0024A5F582E4340DF583E0FF900DBBE0FCF4
:1031EB00A3E02465F582EC3408F583EFF0900DBA7B
:1031FB00E004F07006900DB9E004F0900DBCE00413
:10320B00F07006900DBBE004F080B4900D1EE064EE
:10321B00087056900DB9F0A3F0A3F0A3F0C3900D76
:10322B00BAE0940E900DB9E09400503DA3E024A5B4
:10323B00F582E4340DF583E0FF900DBBE0FCA3E0D9
:10324B0024BDF582EC3408F583EFF0900DBAE00461
:10325B00F07006900DB9E004F0900DBCE004F07036
:10326B0006900DBBE004F080B4900D1EE064097075
:10327B0056900DB9F0A3F0A3F0A3F0C3900DBAE0F4
:10328B00940E900DB9E09400503DA3E024A5F58277
:10329B00E4340DF583E0FF900DBBE0FCA3E02415B7
:1032AB00F582EC3409F583EFF0900DBAE004F07081
:1032BB0006900DB9E004F0900DBCE004F0700690A0
:1032CB000DBBE004F080B4900D1EE0640A600302B5
:1032DB003B79900DB9F0A3F0A3F0A3F0C3900DBA16
:1032EB00E0940E900DB9E094004003023B79A3E00B
:1032FB0024A5F582E4340DF583E0FF900DBBE0FCD3
:10330B00A3E0246DF582EC3409F583EFF0900DBA50
:10331B00E004F07006900DB9E004F0900DBCE004F1
:10332B00F07006900DBBE004F080B17B017A01795F
:10333B007112C48C22900D1EE0FFC3940150030246
:10334B003B70EFD3940A4003023B70900D28E07062
:10335B0003023B79300F03023B79301303023B79B5
:10336B002044030237617F0A900D5BE0FD123B7A2C
:10337B00C244E4900D2DF0C23AA23A72399206D2B1
:10338B003DA23C823B823D9201909200E520F09061
:10339B009000E528F078A57C0D7D017BFF7A5079B4
:1033AB003E12DEC0900D5BE064017056900DB9F0DB
:1033BB00A3F0A3F0A3F0C3900DBAE0940E900DB957
:1033CB00E09400503DA3E024A5F582E4340DF58391
:1033DB00E0FF900DBBE0FCA3E02481F582EC34060A
:1033EB00F583EFF0900DBAE004F07006900DB9E0A4
:1033FB0004F0900DBCE004F07006900DBBE004F0FF
:10340B0080B4900D5BE064027056900DB9F0A3F0A0
:10341B00A3F0A3F0C3900DBAE0940E900DB9E09415
:10342B0000503DA3E024A5F582E4340DF583E0FFC5
:10343B00900DBBE0FCA3E024D9F582EC3406F583B8
:10344B00EFF0900DBAE004F07006900DB9E004F0C7
:10345B00900DBCE004F07006900DBBE004F080B45E
:10346B00900D5BE064037056900DB9F0A3F0A3F0E0
:10347B00A3F0C3900DBAE0940E900DB9E0940050F8
:10348B003DA3E024A5F582E4340DF583E0FF900D18
:10349B00BBE0FCA3E02431F582EC3407F583EFF0BD
:1034AB00900DBAE004F07006900DB9E004F0900DA9
:1034BB00BCE004F07006900DBBE004F080B4900DFE
:1034CB005BE064047056900DB9F0A3F0A3F0A3F089
:1034DB00C3900DBAE0940E900DB9E09400503DA34B
:1034EB00E024A5F582E4340DF583E0FF900DBBE0FD
:1034FB00FCA3E02489F582EC3407F583EFF0900D03
:10350B00BAE004F07006900DB9E004F0900DBCE049
:10351B0004F07006900DBBE004F080B4900D5BE0FE
:10352B0064057056900DB9F0A3F0A3F0A3F0C3900F
:10353B000DBAE0940E900DB9E09400503DA3E02439
:10354B00A5F582E4340DF583E0FF900DBBE0FCA301
:08355B00E024E1F582EC3407E5
:10356300F583EFF0900DBAE004F07006900DB9E02A
:1035730004F0900DBCE004F07006900DBBE004F085
:1035830080B4900D5BE064067056900DB9F0A3F023
:10359300A3F0A3F0C3900DBAE0940E900DB9E0949C
:1035A30000503DA3E024A5F582E4340DF583E0FF4C
:1035B300900DBBE0FCA3E02439F582EC3408F583DD
:1035C300EFF0900DBAE004F07006900DB9E004F04E
:1035D300900DBCE004F07006900DBBE004F080B4E5
:1035E300900D5BE064077056900DB9F0A3F0A3F063
:1035F300A3F0C3900DBAE0940E900DB9E09400507F
:103603003DA3E024A5F582E4340DF583E0FF900D9E
:10361300BBE0FCA3E02491F582EC3408F583EFF0E2
:10362300900DBAE004F07006900DB9E004F0900D2F
:10363300BCE004F07006900DBBE004F080B4900D84
:103643005BE064087056900DB9F0A3F0A3F0A3F00B
:10365300C3900DBAE0940E900DB9E09400503DA3D1
:10366300E024A5F582E4340DF583E0FF900DBBE083
:10367300FCA3E024E9F582EC3408F583EFF0900D28
:10368300BAE004F07006900DB9E004F0900DBCE0D0
:1036930004F07006900DBBE004F080B4900D5BE085
:1036A30064097056900DB9F0A3F0A3F0A3F0C39092
:1036B3000DBAE0940E900DB9E09400503DA3E024C0
:1036C300A5F582E4340DF583E0FF900DBBE0FCA388
:1036D300E02441F582EC3409F583EFF0900DBAE074
:1036E30004F07006900DB9E004F0900DBCE004F016
:1036F3007006900DBBE004F080B4900D5BE0640AAB
:103703006003023B79900DB9F0A3F0A3F0A3F0C3DB
:10371300900DBAE0940E900DB9E094004003023B83
:1037230079A3E024A5F582E4340DF583E0FF900D41
:10373300BBE0FCA3E02499F582EC3409F583EFF0B8
:10374300900DBAE004F07006900DB9E004F0900D0E
:10375300BCE004F07006900DBBE004F080B1900D66
:103763001EE0FE20E0127F0814FD123B7A900D1E2E
:10377300E014900D5BF080147F08900D1EE004FDB3
:10378300123B7A900D1EE004900D5BF0D244900D35
:103793002D7401F0D23AA23A72399206C23DA23C8C
:1037A300823B823D9201909200E520F0909000E5EB
:1037B30028F078A57C0D7D017BFF7A50795E12DEBF
:1037C300C0900D1EE064017056900DB9F0A3F0A3F4
:1037D300F0A3F0C3900DBAE0940E900DB9E09400FD
:1037E300503DA3E024A5F582E4340DF583E0FF907A
:1037F3000DBBE0FCA3E02481F582EC3406F583EFF6
:10380300F0900DBAE004F07006900DB9E004F0906A
:103813000DBCE004F07006900DBBE004F080B490A2
:103823000D1EE064027056900DB9F0A3F0A3F0A34F
:10383300F0C3900DBAE0940E900DB9E09400503DA2
:10384300A3E024A5F582E4340DF583E0FF900DBBDE
:10385300E0FCA3E024D9F582EC3406F583EFF09085
:103863000DBAE004F07006900DB9E004F0900DBCC1
:10387300E004F07006900DBBE004F080B4900D1EE0
:10388300E064037056900DB9F0A3F0A3F0A3F0C366
:10389300900DBAE0940E900DB9E09400503DA3E072
:1038A30024A5F582E4340DF583E0FF900DBBE0FC25
:1038B300A3E02431F582EC3407F583EFF0900DBAE1
:1038C300E004F07006900DB9E004F0900DBCE00444
:1038D300F07006900DBBE004F080B4900D1EE06420
:1038E300047056900DB9F0A3F0A3F0A3F0C3900DAC
:1038F300BAE0940E900DB9E09400503DA3E024A5E6
:10390300F582E4340DF583E0FF900DBBE0FCA3E00A
:103913002489F582EC3407F583EFF0900DBAE004C7
:10392300F07006900DB9E004F0900DBCE004F07067
:1039330006900DBBE004F080B4900D1EE0640570AA
:1039430056900DB9F0A3F0A3F0A3F0C3900DBAE025
:10395300940E900DB9E09400503DA3E024A5F582A8
:10396300E4340DF583E0FF900DBBE0FCA3E024E11C
:10397300F582EC3407F583EFF0900DBAE004F070B4
:1039830006900DB9E004F0900DBCE004F0700690D1
:103993000DBBE004F080B4900D1EE06406705690F9
:1039A3000DB9F0A3F0A3F0A3F0C3900DBAE0940E09
:1039B300900DB9E09400503DA3E024A5F582E434D2
:1039C3000DF583E0FF900DBBE0FCA3E02439F58205
:1039D300EC3408F583EFF0900DBAE004F070069034
:1039E3000DB9E004F0900DBCE004F07006900DBB3F
:1039F300E004F080B4900D1EE064077056900DB99A
:103A0300F0A3F0A3F0A3F0C3900DBAE0940E900DD1
:103A1300B9E09400503DA3E024A5F582E4340DF50C
:103A230083E0FF900DBBE0FCA3E02491F582EC342E
:103A330008F583EFF0900DBAE004F07006900DB92D
:103A4300E004F0900DBCE004F07006900DBBE004C0
:103A5300F080B4900D1EE064087056900DB9F0A389
:103A6300F0A3F0A3F0C3900DBAE0940E900DB9E06B
:103A73009400503DA3E024A5F582E4340DF583E0E2
:103A8300FF900DBBE0FCA3E024E9F582EC3408F5DC
:103A930083EFF0900DBAE004F07006900DB9E004E6
:103AA300F0900DBCE004F07006900DBBE004F080D4
:103AB300B4900D1EE064097056900DB9F0A3F0A305
:103AC300F0A3F0C3900DBAE0940E900DB9E094000A
:103AD300503DA3E024A5F582E4340DF583E0FF9087
:103AE3000DBBE0FCA3E02441F582EC3409F583EF40
:103AF300F0900DBAE004F07006900DB9E004F09078
:103B03000DBCE004F07006900DBBE004F080B490AF
:103B13000D1EE0640A705F900DB9F0A3F0A3F0A34B
:103B2300F0C3900DBAE0940E900DB9E094005046A6
:103B3300A3E024A5F582E4340DF583E0FF900DBBEB
:103B4300E0FCA3E02499F582EC3409F583EFF090CF
:103B53000DBAE004F07006900DB9E004F0900DBCCE
:103B6300E004F07006900DBBE004F080B47B017AB2
:063B730001797112C48CFF
:013B79002229
:033B7A00C9EDC9C9
:103B7D00E4FEFDEF24F87003023D94147003023F40
:103B8D0054147003024114240360030242D3D294EF
:103B9D00C297ED6003023D91EE7012900D4304F05B
:103BAD00FE909A00740BF0909A027405F0900D4AF5
:103BBD00E06017900D43E06011E4F0900D4AF09035
:103BCD000D4404F0909A027404F0900D4BE06021C6
:103BDD00900D44E0601B900D457401F0E4900D4490
:103BED00F0900D4BF0909A00740CF0909A027405C1
:103BFD00F0900D4AE06017900D45E06011E4F090F3
:103C0D000D4AF0900D4604F0909A027404F0900D58
:103C1D004BE07003023D2C900D46E07003023D2CED
:103C2D00900D487401F0E4900D46F0900D4BF0E9C5
:103C3D0014B40A004003023D2C903C4DF828287323
:103C4D00023C6B023C80023C95023CAA023CBC0249
:103C5D003CCC023CDE023CF2023D06023D1A909A3B
:103C6D00007401F0909A027405F0900D5B7401F0F0
:103C7D00023D2C909A007402F0909A027405F09017
:103C8D000D5B7402F0023D2C909A007403F0909A33
:103C9D00027405F0900D5B7403F0023D2C909A00B8
:103CAD007404F0909A0204F0900D5B14F080709003
:103CBD009A007405F0909A02F0900D5BF080609080
:103CCD009A007406F0909A0214F0900D5B04F08047
:103CDD004E909A007407F0909A027405F0900D5B67
:103CED007407F0803A909A007408F0909A02740567
:103CFD00F0900D5B7408F08026909A007409F09096
:103D0D009A027405F0900D5B7409F08012909A0080
:103D1D00740AF0909A027405F0900D5B740AF0909D
:103D2D000D4AE06017900D48E06011E4F0900D4AE7
:103D3D00F0900D4704F0909A027404F0900D4BE052
:103D4D00601F900D47E06019900D497401F0E490EB
:103D5D000D47F0900D4BF0909A00F0909A0274057B
:103D6D00F0900D4AE07003023B9F900D49E0700307
:103D7D00023B9FE4F0900D4AF0909A027404F07D9E
:103D8D0001023B9FD29722C294C297ED6003023F7E
:103D9D0051EE7012900D4304F0FE909A00740BF0EA
:103DAD00909A027405F0900D4AE06017900D43E073
:103DBD006011E4F0900D4AF0900D4404F0909A02D9
:103DCD007404F0900D4BE06021900D44E0601B9069
:103DDD000D457401F0E4900D44F0900D4BF0909A68
:103DED0000740CF0909A027405F0900D4AE0601783
:103DFD00900D45E06011E4F0900D4AF0900D4604F1
:103E0D00F0909A027404F0900D4BE07003023EEABC
:103E1D00900D46E07003023EEA900D487401F0E407
:103E2D00900D46F0900D4BF0E914B40A00400302DA
:103E3D003EEA903E46F8282873023E64023E720226
:103E4D003E80023E8E023E9B023EA7023EB4023EE3
:103E5D00C2023ED0023EDE909A007401F0909A02AA
:103E6D007405F08078909A007402F0909A027405AF
:103E7D00F0806A909A007403F0909A027405F080B5
:103E8D005C909A007404F0909A0204F0804F909A1E
:103E9D00007405F0909A02F08043909A007406F039
:103EAD00909A0214F08036909A007407F0909A025E
:103EBD007405F08028909A007408F0909A027405A9
:103ECD00F0801A909A007409F0909A027405F080AF
:103EDD000C909A00740AF0909A027405F0900D4AB5
:103EED00E06017900D48E06011E4F0900D4AF090FD
:103EFD000D4704F0909A027404F0900D4BE0602190
:103F0D00900D47E0601B900D497401F0E4900D4752
:103F1D00F0900D4BF0909A00740DF0909A0274058C
:103F2D00F0900D4AE07003023D98900D49E070034A
:103F3D00023D98E4F0900D4AF0909A027404F07DE1
:103F4D0001023D98D29722D294C297ED60030241AF
:103F5D0011EE7012900D4304F0FE909A00740BF068
:103F6D00909A027405F0900D4AE06017900D43E0B1
:103F7D006011E4F0900D4AF0900D4404F0909A0217
:103F8D007404F0900D4BE06021900D44E0601B90A7
:103F9D000D457401F0E4900D44F0900D4BF0909AA6
:103FAD0000740CF0909A027405F0900D4AE06017C1
:103FBD00900D45E06011E4F0900D4AF0900D46042F
:103FCD00F0909A027404F0900D4BE070030240AA39
:103FDD00900D46E070030240AA900D487401F0E484
:103FED00900D46F0900D4BF0E914B40A0040030219
:103FFD0040AA904006F8282873024024024032025D
:10400D00404002404E02405B024067024074024055
:10401D008202409002409E909A007401F0909A02A4
:10402D007405F08078909A007402F0909A027405ED
:10403D00F0806A909A007403F0909A027405F080F3
:10404D005C909A007404F0909A0204F0804F909A5C
:10405D00007405F0909A02F08043909A007406F077
:10406D00909A0214F08036909A007407F0909A029C
:10407D007405F08028909A007408F0909A027405E7
:10408D00F0801A909A007409F0909A027405F080ED
:10409D000C909A00740AF0909A027405F0900D4AF3
:1040AD00E06017900D48E06011E4F0900D4AF0903B
:1040BD000D4704F0909A027404F0900D4BE06021CE
:1040CD00900D47E0601B900D497401F0E4900D4791
:1040DD00F0900D4BF0909A00740EF0909A027405CA
:1040ED00F0900D4AE07003023F58900D49E07003C7
:1040FD00023F58E4F0900D4AF0909A027404F07D5E
:10410D0001023F58D29722C294C297ED600302423A
:10411D00D1EE7012900D4304F0FE909A00740BF0E6
:10412D00909A027405F0900D4AE06017900D43E0EF
:10413D006011E4F0900D4AF0900D4404F0909A0255
:10414D007404F0900D4BE06021900D44E0601B90E5
:10415D000D457401F0E4900D44F0900D4BF0909AE4
:10416D0000740CF0909A027405F0900D4AE06017FF
:10417D00900D45E06011E4F0900D4AF0900D46046D
:10418D00F0909A027404F0900D4BE0700302426AB5
:10419D00900D46E0700302426A900D487401F0E400
:1041AD00900D46F0900D4BF0E914B40A0040030257
:1041BD00426A9041C6F82828730241E40241F20296
:1041CD00420002420E02421B0242270242340242C8
:1041DD004202425002425E909A007401F0909A029F
:1041ED007405F08078909A007402F0909A0274052C
:1041FD00F0806A909A007403F0909A027405F08032
:10420D005C909A007404F0909A0204F0804F909A9A
:10421D00007405F0909A02F08043909A007406F0B5
:10422D00909A0214F08036909A007407F0909A02DA
:10423D007405F08028909A007408F0909A02740525
:10424D00F0801A909A007409F0909A027405F0802B
:10425D000C909A00740AF0909A027405F0900D4A31
:10426D00E06017900D48E06011E4F0900D4AF09079
:10427D000D4704F0909A027404F0900D4BE060210C
:10428D00900D47E0601B900D497401F0E4900D47CF
:10429D00F0900D4BF0909A00740FF0909A02740507
:1042AD00F0900D4AE07003024118900D49E0700343
:1042BD00024118E4F0900D4AF0909A027404F07DDA
:0642CD0001024118D29726
:0142D30022C8
:1042D400E4900DBBF0A3F0908C00E0540F900D1E01
:1042E400F0900D56E0F9B410004003024F81904263
:1042F400F9F828287302449302434A02436A0243AA
:104304008B0243AC0243CD0243EE02440F0244301D
:1043140002445102447202432902433902474E02C5
:104324004A12024CC7900D4E7401F0E4900D4FF008
:10433400900D50F022900D4EE07003024F81E4F096
:10434400900D4F04F022900D4FE07003024F81E472
:10435400F0900D5A04F0900D1EE0696003024F8145
:10436400900D5004F022900D4FE07003024F81E451
:10437400F0900D5A7402F0900D1EE0696003024F34
:1043840081900D5004F022900D4FE07003024F8194
:10439400E4F0900D5A7403F0900D1EE0696003027E
:1043A4004F81900D5004F022900D4FE07003024FA6
:1043B40081E4F0900D5A7404F0900D1EE0696003DE
:1043C400024F81900D5004F022900D4FE0700302D3
:1043D4004F81E4F0900D5A7405F0900D1EE0696071
:1043E40003024F81900D5004F022900D4FE07003B2
:1043F400024F81E4F0900D5A7406F0900D1EE069AE
:104404006003024F81900D5004F022900D4FE07034
:1044140003024F81E4F0900D5A7407F0900D1EE0F2
:10442400696003024F81900D5004F022900D4FE01B
:104434007003024F81E4F0900D5A7408F0900D1E41
:10444400E0696003024F81900D5004F022900D4FFB
:10445400E07003024F81E4F0900D5A7409F0900D5E
:104464001EE0696003024F81900D5004F022900D0C
:104474004FE07003024F81E4F0900D5A740AF090FB
:104484000D1EE0696003024F81900D5004F02290EC
:104494000D50E07003024F81E4F0D239900D2C04EA
:1044A400F0C23CA23C823B823D9201A23A72399214
:1044B40006909200E520F0D242909000E528F07832
:1044C400A57C0D7D017BFF7A50795E12DEC0900DD4
:1044D4001EE0B40138E4900DB9F0A3F0900DB9E0FA
:1044E400FFC3940E502774A52FF582E4340DF58391
:1044F400E0FF900DBAE02455F582E43406F583EF2D
:10450400F0900DB9E004F0A3E004F080CF900D1E0C
:10451400E0B40238E4900DB9F0A3F0900DB9E0FFD7
:10452400C3940E502774A52FF582E4340DF583E06F
:10453400FF900DBAE024ADF582E43406F583EFF084
:10454400900DB9E004F0A3E004F080CF900D1EE0DC
:10455400B40338E4900DB9F0A3F0900DB9E0FFC3B3
:10456400940E502774A52FF582E4340DF583E0FFF3
:10457400900DBAE02405F582E43407F583EFF0905A
:104584000DB9E004F0A3E004F080CF900D1EE0B478
:104594000438E4900DB9F0A3F0900DB9E0FFC39492
:1045A4000E502774A52FF582E4340DF583E0FF90B7
:1045B4000DBAE0245DF582E43407F583EFF0900D45
:1045C400B9E004F0A3E004F080CF900D1EE0B40540
:1045D40038E4900DB9F0A3F0900DB9E0FFC3940E48
:1045E400502774A52FF582E4340DF583E0FF900D78
:1045F400BAE024B5F582E43407F583EFF0900DB901
:10460400E004F0A3E004F080CF900D1EE0B406387F
:10461400E4900DB9F0A3F0900DB9E0FFC3940E50EF
:104624002774A52FF582E4340DF583E0FF900DBACD
:10463400E0240DF582E43408F583EFF0900DB9E041
:1046440004F0A3E004F080CF900D1EE0B40738E43A
:10465400900DB9F0A3F0900DB9E0FFC3940E50276C
:1046640074A52FF582E4340DF583E0FF900DBAE0D4
:104674002465F582E43408F583EFF0900DB9E00485
:10468400F0A3E004F080CF900D1EE0B40838E4906D
:104694000DB9F0A3F0900DB9E0FFC3940E50277448
:1046A400A52FF582E4340DF583E0FF900DBAE024E4
:1046B400BDF582E43408F583EFF0900DB9E004F021
:1046C400A3E004F080CF900D1EE0B40938E4900D0F
:1046D400B9F0A3F0900DB9E0FFC3940E502774A570
:1046E4002FF582E4340DF583E0FF900DBAE0241534
:1046F400F582E43409F583EFF0900DB9E004F0A3FA
:10470400E004F080CF900D1EE0640A6003024F8144
:10471400900DB9F0A3F0900DB9E0FFC3940E4003DF
:10472400024F8174A52FF582E4340DF583E0FF90E8
:104734000DBAE0246DF582E43409F583EFF0900DB1
:10474400B9E004F0A3E004F080CC78A57C0D7D01F1
:104754007BFF7A50795E12DEC0900D28E070030270
:104764004F81900D50E07003024F81E4F0D23A90F3
:104774000D2D04F0C23DA23C823B823D9201A23A3F
:1047840072399206909200E520F0D245909000E5AF
:1047940028F0900D1EE0B40138E4900DB9F0A3F0B8
:1047A400900DB9E0FFC3940E502774A52FF582E451
:1047B400340DF583E0FF900DBAE02481F582E434F2
:1047C40006F583EFF0900DB9E004F0A3E004F08067
:1047D400CF900D1EE0B40238E4900DB9F0A3F09030
:1047E4000DB9E0FFC3940E502774A52FF582E4346D
:1047F4000DF583E0FF900DBAE024D9F582E4340688
:10480400F583EFF0900DB9E004F0A3E004F080CF5D
:10481400900D1EE0B40338E4900DB9F0A3F0900DB0
:10482400B9E0FFC3940E502774A52FF582E4340D2C
:10483400F583E0FF900DBAE02431F582E43407F506
:1048440083EFF0900DB9E004F0A3E004F080CF9082
:104854000D1EE0B40438E4900DB9F0A3F0900DB946
:10486400E0FFC3940E502774A52FF582E4340DF5B0
:1048740083E0FF900DBAE02489F582E43407F583E0
:10488400EFF0900DB9E004F0A3E004F080CF900DB8
:104894001EE0B40538E4900DB9F0A3F0900DB9E032
:1048A400FFC3940E502774A52FF582E4340DF583CD
:1048B400E0FF900DBAE024E1F582E43407F583EFDC
:1048C400F0900DB9E004F0A3E004F080CF900D1E49
:1048D400E0B40638E4900DB9F0A3F0900DB9E0FF10
:1048E400C3940E502774A52FF582E4340DF583E0AC
:1048F400FF900DBAE02439F582E43408F583EFF033
:10490400900DB9E004F0A3E004F080CF900D1EE018
:10491400B40738E4900DB9F0A3F0900DB9E0FFC3EB
:10492400940E502774A52FF582E4340DF583E0FF2F
:10493400900DBAE02491F582E43408F583EFF09009
:104944000DB9E004F0A3E004F080CF900D1EE0B4B4
:104954000838E4900DB9F0A3F0900DB9E0FFC394CA
:104964000E502774A52FF582E4340DF583E0FF90F3
:104974000DBAE024E9F582E43408F583EFF0900DF4
:10498400B9E004F0A3E004F080CF900D1EE0B40978
:1049940038E4900DB9F0A3F0900DB9E0FFC3940E84
:1049A400502774A52FF582E4340DF583E0FF900DB4
:1049B400BAE02441F582E43409F583EFF0900DB9AF
:1049C400E004F0A3E004F080CF900D1EE0640A60E0
:1049D40003024F81900DB9F0A3F0900DB9E0FFC32D
:1049E400940E4003024F8174A52FF582E4340DF533
:1049F40083E0FF900DBAE02499F582E43409F5834D
:104A0400EFF0900DB9E004F0A3E004F080CC78A5B9
:104A14007C0D7D017BFF7A50793E12DEC0900D5AE9
:104A2400E0B40138E4900DB9F0A3F0900DB9E0FFC3
:104A3400C3940E502774A52FF582E4340DF583E05A
:104A4400FF900DBAE02455F582E43406F583EFF0C7
:104A5400900DB9E004F0A3E004F080CF900D5AE08B
:104A6400B40238E4900DB9F0A3F0900DB9E0FFC39F
:104A7400940E502774A52FF582E4340DF583E0FFDE
:104A8400900DBAE024ADF582E43406F583EFF0909E
:104A94000DB9E004F0A3E004F080CF900D5AE0B427
:104AA4000338E4900DB9F0A3F0900DB9E0FFC3947E
:104AB4000E502774A52FF582E4340DF583E0FF90A2
:104AC4000DBAE02405F582E43407F583EFF0900D88
:104AD400B9E004F0A3E004F080CF900D5AE0B404F0
:104AE40038E4900DB9F0A3F0900DB9E0FFC3940E33
:104AF400502774A52FF582E4340DF583E0FF900D63
:104B0400BAE0245DF582E43407F583EFF0900DB943
:104B1400E004F0A3E004F080CF900D5AE0B405382F
:104B2400E4900DB9F0A3F0900DB9E0FFC3940E50DA
:104B34002774A52FF582E4340DF583E0FF900DBAB8
:104B4400E024B5F582E43407F583EFF0900DB9E085
:104B540004F0A3E004F080CF900D5AE0B40638E4EA
:104B6400900DB9F0A3F0900DB9E0FFC3940E502757
:104B740074A52FF582E4340DF583E0FF900DBAE0BF
:104B8400240DF582E43408F583EFF0900DB9E004C8
:104B9400F0A3E004F080CF900D5AE0B40738E4901D
:104BA4000DB9F0A3F0900DB9E0FFC3940E50277433
:104BB400A52FF582E4340DF583E0FF900DBAE024CF
:104BC40065F582E43408F583EFF0900DB9E004F064
:104BD400A3E004F080CF900D5AE0B40838E4900DBF
:104BE400B9F0A3F0900DB9E0FFC3940E502774A55B
:104BF4002FF582E4340DF583E0FF900DBAE024BD77
:104C0400F582E43408F583EFF0900DB9E004F0A3E5
:104C1400E004F080CF900D5AE0B40938E4900DB967
:104C2400F0A3F0900DB9E0FFC3940E502774A52FA4
:104C3400F582E4340DF583E0FF900DBAE02415F518
:104C440082E43409F583EFF0900DB9E004F0A3E0B9
:104C540004F080CF900D5AE0B40A38E4900DB9F016
:104C6400A3F0900DB9E0FFC3940E502774A52FF55F
:104C740082E4340DF583E0FF900DBAE0246DF582F3
:104C8400E43409F583EFF0900DB9E004F0A3E004F7
:104C9400F080CF900D50E07003024F81E4F0C239F0
:104CA400900D2CF0D23CA23C823B823D9201A23A70
:104CB40072399206909200E520F0C242909000E58D
:104CC40028F02278A57C0D7D017BFF7A50793E1275
:104CD400DEC0900D28E07003024F81900D5AE0B4BD
:104CE4000138E4900DB9F0A3F0900DB9E0FFC3943E
:104CF4000E502774A52FF582E4340DF583E0FF9060
:104D04000DBAE02481F582E43406F583EFF0900DCA
:104D1400B9E004F0A3E004F080CF900D5AE0B402AF
:104D240038E4900DB9F0A3F0900DB9E0FFC3940EF0
:104D3400502774A52FF582E4340DF583E0FF900D20
:104D4400BAE024D9F582E43406F583EFF0900DB986
:104D5400E004F0A3E004F080CF900D5AE0B40338EF
:104D6400E4900DB9F0A3F0900DB9E0FFC3940E5098
:104D74002774A52FF582E4340DF583E0FF900DBA76
:104D8400E02431F582E43407F583EFF0900DB9E0C7
:104D940004F0A3E004F080CF900D5AE0B40438E4AA
:104DA400900DB9F0A3F0900DB9E0FFC3940E502715
:104DB40074A52FF582E4340DF583E0FF900DBAE07D
:104DC4002489F582E43407F583EFF0900DB9E0040B
:104DD400F0A3E004F080CF900D5AE0B40538E490DD
:104DE4000DB9F0A3F0900DB9E0FFC3940E502774F1
:104DF400A52FF582E4340DF583E0FF900DBAE0248D
:104E0400E1F582E43407F583EFF0900DB9E004F0A6
:104E1400A3E004F080CF900D5AE0B40638E4900D7E
:104E2400B9F0A3F0900DB9E0FFC3940E502774A518
:104E34002FF582E4340DF583E0FF900DBAE02439B8
:104E4400F582E43408F583EFF0900DB9E004F0A3A3
:104E5400E004F080CF900D5AE0B40738E4900DB927
:104E6400F0A3F0900DB9E0FFC3940E502774A52F62
:104E7400F582E4340DF583E0FF900DBAE02491F55A
:104E840082E43408F583EFF0900DB9E004F0A3E078
:104E940004F080CF900D5AE0B40838E4900DB9F0D6
:104EA400A3F0900DB9E0FFC3940E502774A52FF51D
:104EB40082E4340DF583E0FF900DBAE024E9F58235
:104EC400E43408F583EFF0900DB9E004F0A3E004B6
:104ED400F080CF900D5AE0B40938E4900DB9F0A3F6
:104EE400F0900DB9E0FFC3940E502774A52FF582FE
:104EF400E4340DF583E0FF900DBAE02441F582E43B
:104F04003409F583EFF0900DB9E004F0A3E004F068
:104F140080CF900D5AE0B40A38E4900DB9F0A3F0B4
:104F2400900DB9E0FFC3940E502774A52FF582E4C9
:104F3400340DF583E0FF900DBAE02499F582E43452
:104F440009F583EFF0900DB9E004F0A3E004F080DC
:104F5400CF900D50E06026E4F0C23A900D2DF0D2CF
:104F64003DA23C823B823D9201A23A723992069064
:0D4F74009200E520F0C245909000E528F085
:014F8100220D
:03000B0002506D33
:0B506D00C0E0C083C082C0D0EFC0E0F4
:10507800E4900E13F0900D30E004F0900D31E00450
:10508800F0909A03E0FF30E20B909A01E0FF540F92
:10509800900D56F0900D30E0D394034007E4F09063
:1050A8000D3204F0900D43E064016017900D45E067
:1050B8006401600F900D48E064016007900D49E0BD
:1050C800B40108900D4CE004F08005E4900D4CF01C
:1050D800900D4CE0D39404400B900D4A7401F0E419
:1050E800900D4CF0900D44E06401600F900D46E087
:1050F80064016007900D47E0B40108900D4DE0048D
:10510800F08005E4900D4DF0900D4DE0D3940540EE
:105118000B900D4B7401F0E4900D4DF0900D4EE0A6
:10512800B40108900D51E004F08005E4900D51F0B1
:10513800900D51E0D394144005E4900D4EF0900D7D
:105148004FE0B40108900D52E004F08005E4900DA2
:1051580052F0900D50E0B40108900D53E004F08037
:1051680005E4900D53F0900D52E0D394144005E4FB
:10517800900D4FF0900D53E0D394144005E4900D3A
:1051880050F0900D31E0D39413500302527EE4F0B6
:10519800900D3304F0B203900D5EE07004A3E06458
:1051A800017009900D64F0A304F08007E4900D6489
:1051B800F0A3F0900D60E07002A3E0600A900D6625
:1051C800E4F0A304F08007E4900D66F0A3F0900DDE
:1051D80062E07004A3E064017009900D68F0A30414
:1051E800F08007E4900D68F0A3F0900D2AE06010BD
:1051F800900D37E004F07006900D36E004F080075B
:10520800E4900D36F0A3F0900D2BE06010900D3A6D
:10521800E004F07006900D39E004F08007E4900D8A
:1052280039F0A3F0900D2CE06010900D3DE004F0F3
:105238007006900D3CE004F08007E4900D3CF0A36C
:10524800F0900D2DE06010900D40E004F070069095
:105258000D3FE004F08007E4900D3FF0A3F0900DBF
:1052680034E07002A3E0600E900D35E004F07006A3
:10527800900D34E004F0B295D3900D37E094AF90E0
:105288000D36E094044009E4F0A3F0900D3804F0E2
:10529800D3900D3AE094AF900D39E094044009E4BE
:1052A800F0A3F0900D3B04F0D3900D3DE094AF9047
:1052B8000D3CE094044009E4F0A3F0900D3E04F0A6
:1052C800D3900D40E094AF900D3FE094044009E482
:1052D800F0A3F0900D4104F0D3900D35E094329096
:1052E8000D34E09400400D9000077401F0E4900D37
:0A52F80034F0A3F0758AFF758CA551
:0C530200D0E0FFD0D0D082D083D0E032C9
:10C4E20025730020203230572053797374656D20F4
:10C4F2002020760020203430572053797374656DE4
:10C5020020202076004C6F63616C205465726D6947
:10C512006E616C205E004944203A204F6E652020F7
:10C52200202020202076004944203A2054776F2092
:10C5320020202020202076004944203A205468728E
:10C542006565202020202076004944203A20466F4D
:10C55200757220202020202076004944203A20466F
:10C5620069766520202020202076004944203A2048
:10C572005369782020202020202076004944203A48
:10C5820020536576656E20202020207600494420C5
:10C592003A204569676874202020202076004944AB
:10C5A200203A204E696E6520202020202076004906
:10C5B20044203A2054656E2020202020202076003E
:10C5C200496E76616C696420494420202020202035
:10C5D200002020202053657474696E677320202028
:10C5E20020004F2F50204C4F5720414C4D202020EF
:10C5F20020004F5645524C4F414420414C4D202083
:10C60200200050414D50204655534520414C4D206D
:10C61200200043483120414743204C4F57202020DF
:10C62200200043483220414743204C4F57202020CE
:10C63200200043483120532F4E204C4F57202020BA
:10C64200200043483220532F4E204C4F57202020A9
:10C652002000434831204D555445202020202020E1
:10C662002000434832204D555445202020202020D0
:10C672002000505355204641554C5459202020202B
:10C6820020005443584F20414C4D20202020202090
:10C69200200045585420414C4D20202020202020AD
:10C6A20020005359532E20494E204C4F4F502020EA
:10C6B20020005646493120414253454E5420202005
:10C6C2002000456D707479202020205E0056464976
:10C6D2003120202020205E0043484D31204142532A
:10C6E200454E542020202000456D70747920202072
:10C6F20020760043484D31202020202076005041F2
:10C702004D5020414253454E54202020200050419C
:10C712004D5020202020205E0044495531204142C6
:10C7220053454E54202020200044495531202020DA
:10C73200202076005646493220414253454E54202D
:10C742002020005646493220202020205E00434807
:10C752004D3220414253454E542020200043484D43
:10C762003220202020207600444955322041425375
:10C77200454E5420202000444955322020202020BC
:10C782005E006F6E206C6F616420202020202020CC
:10C7920020760048462048592E206F6E206C6F612B
:10C7A20064006F6E206C696E65202020202020209E
:10C7B200207600616273656E742020202020202084
:10C7C200202076004846204859422E2041425345B7
:10C7D2004E54004E6F204D6F726520416C61726D38
:10C7E200730053696E676C652043682053797374D4
:10C7F200656D004368616E6E656C3220204E2E417D
:10C802002E205E0053696E676C6520436820436F7B
:10C812006E666967005477696E20436820537973A6
:10C8220074656D2020004E6F726D616C2020202097
:10C83200202020202076004368616E6E656C3220D5
:10C8420020202020202076004E4F20414C41524D86
:10C85200532020202020004C6F63616C20537461B0
:10C8620074696F6E2020004C6F63616C2074657375
:10C8720074206D6F646500496E2052656D6F74653A
:10C88200204C6F6F70004E6F726D616C2020202003
:06C8920020202020200000
:10C8980041000C006D10000D000100002050554EA5
:10C8A800434F4D20504C39353030202000000000D7
:10C8B80020504C43432045515549504D454E542036
:10C8C80000000000000200014D41494E204D454E38
:10C8D800552020202020202000000000202020209B
:10C8E800202020202020202020202076000000006A
:10C8F80000020002414C41524D53202020202020AC
:10C908002020205E00000000203C456E7465723EC9
:10C9180020202020202020760000000000020003B4
:10C928005354415455532020202020202020205E9D
:10C9380000000000203C456E7465723E20202020D7
:10C9480020202076000000000002000454455354C3
:10C9580020202020202020202020205E0000000011
:10C96800203C456E7465723E202020202020202027
:10C978000000000000030005536F6674776172655C
:10C98800205665722E20202000000000312E332012
:10C9980020202020202020202020207600000000B9
:10C9A8000003000653797374656D20436F6E6669E2
:10C9B800672E205E0000000020202020202020205C
:10C9C80020202020202020760000000000030007FF
:10C9D8002020202020202020202020202020205E11
:10C9E80000000000202020202020202020202020BF
:10C9F80020202076000000000003000820202020CE
:10CA080020202020202020202020205E0000000060
:10CA180020202020202020202020202020202076B8
:10CA28000000000000030009536C6F74313A564649
:10CA3800493120202020205E00000000536C6F74D4
:10CA4800323A43484D312020202020760000000053
:10CA58000003000A536C6F74333A5646493220205B
:10CA68002020205E00000000536C6F74343A434865
:10CA78004D32202020202076000000000003000B0B
:10CA8800536C6F74353A50414D5020202020205E61
:10CA980000000000536C6F74363A44495531202029
:10CAA80020202076000000000003000C536C6F74F7
:10CAB800373A4449553220202020205E00000000EB
:10CAC800536C6F74383A535550202020202020761C
:10CAD800000000000003000D484620487962726992
:10CAE800642020202020205E00000000202020203C
:10CAF8002020202020202020202020760000000058
:10CB08000003000E2020202020202020202020208C
:10CB18002020205E0000000020202020202020204F
:10CB28002020202020202076000000000003000F95
:10CB38002020202020202020202020202020205EAF
:10CB4800000000002020202020202020202020205D
:10CB58002020207600000000000300102020205034
:10CB6800414D50204F2F503A2020205E00000000F9
:10CB78002020202020202020202020202020207657
:10CB88000000000000030011503132563A2B2020DB
:10CB9800202020202020205E000000004E31325648
:10CBA8003A2D202020202020202020760000000080
:10CBB80000030012202020202020202020202020D8
:10CBC8002020205E0000000020202020202020209F
:10CBD80020202020202020760000000000030013E1
:10CBE8005035563A2B202020202020202020205E5F
:10CBF80000000000202020202020202020202020AD
:10CC08002020202000000000000400144C4F434165
:10CC18004C204C4F4F504241434B20200000000015
:10CC280020202020202020202020202020202020FC
:10CC3800000000000004001552454D4F5445204C9B
:10CC48004F4F504241434B2000000000202020203D
:10CC5800202020202020202020202020000000004C
:10CC6800000600164368616E6E656C312020202036
:10CC78002020205E000000004E6F726D616C202045
:10CC88002020202020202076000000000006001729
:10CC98004368616E6E656C32202020202020205E63
